:100000000C9486000C94B7000C94B7000C94B700C5
:100010000C94B7000C94B7000C94B7000C94B70084
:100020000C94B7000C94B7000C94B7000C94B70074
:100030000C94B7000C94B7000C94B7000C94B70064
:100040000C94B7000C94B7000C94B7000C94B70054
:100050000C94B7000C94B7000C94B7000C94CF0626
:100060000C94B7000C9489030C9479040C94B70099
:100070000C94B7000C94B7000C94B7000C94B70024
:100080000C94B7000C94B7000C94B7000C94B70014
:100090000C94BD030C94B8040C94B7000C94B700F6
:1000A0000C94B7000C94B7000C94B7000C94B700F4
:1000B0000C94B7000C94B7000C94B7000C94B700E4
:1000C0000C94B7000C94B7000C94B7000C94F10397
:1000D0000C94F7040C94B7000C9425040C9436058A
:1000E0000C94B7000C9458040C94E5020C94D502BF
:1000F0000C945C020C9421030C942C030C940103CB
:100100000C94FD050C94F500F500FD0511241FBEAF
:10011000CFEFD1E2DEBFCDBF00E00CBF12E0A0E028
:10012000B2E0E4E5FFE000E00BBF02C007900D92F3
:10013000AE34B107D9F725E0AEE4B2E001C01D92BC
:10014000A730B207E1F710E0C6E8D0E000E006C053
:1001500021970109802FFE010E94A007C438D10712
:1001600080E00807A9F70E94C8020C947B070C9452
:10017000000040E855E260E070E088EB92E00E9409
:10018000750566E072E088EB92E00E94B6026EE0D0
:1001900072E088EB92E00E94B60260E372E088EBC6
:1001A00092E00E94B6021092510210925002E09129
:1001B0004E02F0914F021082089568E372E088EBDE
:1001C00092E00E94990260914E0270914F0288EB7A
:1001D00092E00E94B6021092510210925002E091F9
:1001E0004E02F0914F021082089580E091E00E944B
:1001F0002F0190934F0280934E02089588EB92E076
:100200000E94D502892B51F188EB92E00E940103F4
:100210008A3011F08D3011F40C94DD0020915002E1
:10022000309151022F3F3105C8F440914E02509158
:100230004F02FA01E20FF31F8083809150029091E8
:1002400051020196909351028093500220914E02E8
:1002500030914F02F901E80FF91F10820895CF93F2
:10026000DF938230910510F482E090E0E091050583
:10027000F091060520E030E0C0E0D0E0309711F1C9
:100280004081518148175907C0F04817590761F458
:1002900082819381209719F09B838A832BC090934E
:1002A00006058093050526C02115310519F0421772
:1002B000530718F49A01BE01DF01EF010280F381B8
:1002C000E02DDCCF2115310509F1281B390B243035
:1002D000310590F412968D919C91139761157105DB
:1002E00021F0FB019383828304C0909306058093E1
:1002F0000505FD01329644C0FD01E20FF31F819315
:100300009193225031092D933C933AC020910305DB
:1003100030910405232B41F4209102023091030215
:1003200030930405209303052091000230910102CF
:100330002115310541F42DB73EB74091040250918B
:100340000502241B350BE0910305F0910405E2172B
:10035000F307A0F42E1B3F0B2817390778F0AC01E8
:100360004E5F5F4F2417350748F04E0F5F1F5093C5
:100370000405409303058193919302C0E0E0F0E00F
:10038000CF01DF91CF9108950F931F93CF93DF9308
:10039000009709F48CC0FC013297138212820091FD
:1003A0000505109106050115110581F420813181A3
:1003B000820F931F209103053091040528173907F8
:1003C00079F5F0930405E093030571C0D80140E08E
:1003D00050E0AE17BF0750F412962D913C91139741
:1003E000AD012115310509F1D901F3CF9D01DA01E4
:1003F0003383228360817181860F971F8217930751
:1004000069F4EC0128813981260F371F2E5F3F4F99
:10041000318320838A819B8193838283452B29F4B6
:10042000F0930605E093050542C01396FC93EE9306
:100430001297ED01499159919E01240F351FE21742
:10044000F30771F480819181840F951F02961196B4
:100450009C938E938281938113969C938E93129793
:10046000E0E0F0E0D80112968D919C9113970097EF
:1004700019F0F8018C01F6CF8D919C9198012E5FB7
:100480003F4F820F931F20910305309104052817D9
:10049000390769F4309729F4109206051092050582
:1004A00002C0138212821093040500930305DF91AA
:1004B000CF911F910F910895CF92DF92EF92FF920B
:1004C0000F931F93CF93DF936C01EB017B01E40E3D
:1004D000F51E00E010E0CE15DF0561F06991D60150
:1004E000ED91FC910190F081E02DC6011995080F66
:1004F000191FF1CFC801DF91CF911F910F91FF908C
:10050000EF90DF90CF9008956115710579F0FB01B0
:1005100001900020E9F73197AF01461B570BDC0132
:10052000ED91FC910280F381E02D199480E090E040
:1005300008950C948402DC01ED91FC910190F0810E
:10054000E02D19940F931F93CF93DF93EC016DE08F
:100550000E949B028C016AE0CE010E949B02800FE8
:10056000911FDF91CF911F910F9108950F931F93CA
:10057000CF93DF93EC010E9484028C01CE010E9494
:10058000A202800F911FDF91CF911F910F910895CB
:100590000E9419070E94B900C8E5D4E00E94FE003D
:1005A0002097E1F30E945804F9CFFC01248535859A
:1005B000F901E05CFF4F8081918132962081318189
:1005C000821B930B8F7399270895DC011C96ED9184
:1005D000FC911D97DF01A05CBF4F2D913C911197BD
:1005E00012968D919C9111972817390739F08D91AA
:1005F0009C91E80FF91F808190E008958FEF9FEFA5
:100600000895FC01A485B585FD01E05CFF4F2081C4
:1006100031813296808191812817390779F0808164
:100620009181A80FB91F8C91208131812F5F3F4F9D
:100630002F7333273183208390E008958FEF9FEF4E
:100640000895FC0181A1882329F0A489B5898C91A2
:1006500086FFFBCF11A208950F931F93CF93DF93D3
:10066000FC01A685B7858D01005C1F4FE8018881DC
:10067000998101968F739927AD014E5B5F4FEA0117
:100680002881398182179307D1F3E80128813981C4
:10069000A20FB31F6C93A685B785A05CBF4F1196C0
:1006A0009C938E93A689B7892C9181E090E0078C6A
:1006B00002C0880F991F0A94E2F7822B8C9381E085
:1006C00081A30488F589E02D80818064808381E0A6
:1006D00090E0DF91CF911F910F910895FB01E05CB5
:1006E000FF4F208131812F5F3F4F2F733327DB0175
:1006F000AE5BBF4F4D915C912417350741F04081AF
:100700005181DB01A40FB51F8C93318320830895A1
:1007100008951F920F920FB60F9211240BB60F92ED
:100720002F933F934F935F936F937F938F939F93F9
:10073000AF93BF93EF93FF938091C00082FD07C0FA
:100740008091C60066EB74E00E946E0302C0809147
:10075000C600FF91EF91BF91AF919F918F917F91D3
:100760006F915F914F913F912F910F900BBE0F9022
:100770000FBE0F901F90189508951F920F920FB6FD
:100780000F9211240BB60F922F933F934F935F93C9
:100790006F937F938F939F93AF93BF93EF93FF9349
:1007A0008091C80082FD07C08091CE006EE274E0A7
:1007B0000E946E0302C08091CE00FF91EF91BF9125
:1007C000AF919F918F917F916F915F914F913F91E9
:1007D0002F910F900BBE0F900FBE0F901F9018958A
:1007E00008951F920F920FB60F9211240BB60F921D
:1007F0002F933F934F935F936F937F938F939F9329
:10080000AF93BF93EF93FF938091D00082FD07C019
:100810008091D60066EA73E00E946E0302C0809168
:10082000D600FF91EF91BF91AF919F918F917F91F2
:100830006F915F914F913F912F910F900BBE0F9051
:100840000FBE0F901F90189508951F920F920FB62C
:100850000F9211240BB60F922F933F934F935F93F8
:100860006F937F938F939F93AF93BF93EF93FF9378
:100870008091300182FD07C0809136016EE173E006
:100880000E946E0302C080913601FF91EF91BF91EB
:10089000AF919F918F917F916F915F914F913F9118
:1008A0002F910F900BBE0F900FBE0F901F901895B9
:1008B00088EB92E00E94D502892B11F00E948803F8
:1008C00086E992E00E94D502892B11F00E94BC03B8
:1008D00084E792E00E94D502892B11F00E94F00378
:1008E00082E592E00E94D502892B11F00C94240439
:1008F00008951F920F920FB60F9211240BB60F920C
:100900002F933F938F939F93EF93FF932091B20484
:100910003091B3048091B4049091B504281739073D
:1009200031F48091C1008F7D8093C10014C0E091AB
:10093000B404F091B504EE58FB4F20818091B404CB
:100940009091B50401968F7399279093B504809385
:10095000B4042093C600FF91EF919F918F913F9136
:100960002F910F900BBE0F900FBE0F901F901895F8
:100970001F920F920FB60F9211240BB60F922F9366
:100980003F938F939F93EF93FF9320912A0430918D
:100990002B0480912C0490912D042817390731F4F1
:1009A0008091C9008F7D8093C90014C0E0912C0410
:1009B000F0912D04E651FC4F208180912C04909100
:1009C0002D0401968F73992790932D0480932C0406
:1009D0002093CE00FF91EF919F918F913F912F91A6
:1009E0000F900BBE0F900FBE0F901F9018951F9287
:1009F0000F920FB60F9211240BB60F922F933F93C5
:100A00008F939F93EF93FF932091A2033091A303C1
:100A10008091A4039091A5032817390731F48091A0
:100A2000D1008F7D8093D10014C0E091A403F09198
:100A3000A503EE59FC4F20818091A4039091A5035A
:100A400001968F7399279093A5038093A403209315
:100A5000D600FF91EF919F918F913F912F910F9031
:100A60000BBE0F900FBE0F901F9018951F920F9204
:100A70000FB60F9211240BB60F922F933F938F93C3
:100A80009F93EF93FF9320911A0330911B03809162
:100A90001C0390911D032817390731F4809131010F
:100AA0008F7D8093310114C0E0911C03F0911D03F0
:100AB000E652FD4F208180911C0390911D03019609
:100AC0008F73992790931D0380931C032093360105
:100AD000FF91EF919F918F913F912F910F900BBEBE
:100AE0000F900FBE0F901F901895CF92DF92EF924C
:100AF000FF920F931F93CF93DF93EC016A017B0169
:100B00004115514E6105710509F1EC89FD8981E0BE
:100B100090E008A002C0880F991F0A94E2F7808332
:100B200060E079E08DE390E0A70196010E947E07E6
:100B300089019A010150110921093109369527953A
:100B400017950795980101151041A8F0EC89FD89CA
:100B5000108260E874E88EE190E0A70196010E949F
:100B60007E07DA01C9010197A109B109B695A795D8
:100B7000979587959C01E889F9893083EA89FB89F3
:100B8000208319A2EE89FF89408181E090E09C01D9
:100B90000C8C02C0220F331F0A94E2F7242B20830F
:100BA000EE89FF8940819C010D8C02C0220F331F0A
:100BB0000A94E2F7242B2083EE89FF8940819C016F
:100BC0000E8C02C0220F331F0A94E2F7242B2083DD
:100BD000EE89FF8920810F8C02C0880F991F0A942B
:100BE000E2F7809582238083DF91CF911F910F914F
:100BF000FF90EF90DF90CF900895CF92DF92EF9229
:100C0000FF92E8EBF2E01382128288EEC82E83E0B6
:100C1000D82EE12CF12CC482D582E682F78262E4E0
:100C200072E07183608386EB94E09587848782E726
:100C300094E09787868785EC90E0918B808B84EC9D
:100C400090E0938B828B80EC90E0958B848B81EC91
:100C500090E0978B868B82EC90E0918F808F86EC72
:100C600090E0938F828F44E0448F33E0358F27E00C
:100C7000268F95E0978F81E080A3E6E9F2E013826A
:100C80001282C482D582E682F78271836083AEE2EB
:100C9000B4E0B587A487AAEEB3E0B787A687ADEC2A
:100CA000B0E0B18BA08BACECB0E0B38BA28BA8EC26
:100CB000B0E0B58BA48BA9ECB0E0B78BA68BAAEC07
:100CC000B0E0B18FA08FAEECB0E0B38FA28F448FB5
:100CD000358F268F978F80A3E4E7F2E0138212828C
:100CE000C482D582E682F78271836083A6EAB3E08C
:100CF000B587A487A2E6B3E0B787A687A5EDB0E0E5
:100D0000B18BA08BA4EDB0E0B38BA28BA0EDB0E0D3
:100D1000B58BA48BA1EDB0E0B78BA68BA2EDB0E0B4
:100D2000B18FA08FA6EDB0E0B38FA28F448F358F27
:100D3000268F978F80A3E2E5F2E013821282C482AD
:100D4000D582E682F782718360836EE173E07587F6
:100D500064876AED72E07787668765E371E0718B7F
:100D6000608B64E371E0738B628B60E371E0758B81
:100D7000648B61E371E0778B668B62E371E0718F66
:100D8000608F66E371E0738F628F448F358F268F9B
:100D9000978F80A3FF90EF90DF90CF9008951F92E0
:100DA0000F920FB60F9211242F933F938F939F931F
:100DB000AF93BF938091FB049091FC04A091FD043C
:100DC000B091FE043091FA0423E0230F2D3720F474
:100DD0000196A11DB11D05C026E8230F0296A11D95
:100DE000B11D2093FA048093FB049093FC04A0931C
:100DF000FD04B093FE048091FF0490910005A09142
:100E00000105B09102050196A11DB11D8093FF045B
:100E100090930005A0930105B0930205BF91AF9197
:100E20009F918F913F912F910F900FBE0F901F9028
:100E30001895789484B5826084BD84B5816084BD42
:100E400085B5826085BD85B5816085BDEEE6F0E043
:100E5000808181608083E1E8F0E01082808182609F
:100E60008083808181608083E0E8F0E08081816020
:100E70008083E1EBF0E0808184608083E0EBF0E050
:100E8000808181608083E1E9F0E0808182608083FD
:100E9000808181608083E0E9F0E0808181608083EF
:100EA000E1EAF0E0808182608083808181608083DC
:100EB000E0EAF0E0808181608083E1E2F1E080811E
:100EC00082608083808181608083E0E2F1E08081C4
:100ED00081608083EAE7F0E08081846080838081A4
:100EE000826080838081816080838081806880834C
:100EF0001092C1000895F8940C94A807A1E21A2E4C
:100F0000AA1BBB1BFD010DC0AA1FBB1FEE1FFF1FAD
:100F1000A217B307E407F50720F0A21BB30BE40BFD
:100F2000F50B661F771F881F991F1A9469F7609544
:100F30007095809590959B01AC01BD01CF010895FE
:100F4000EE0FFF1F881F8BBF0790F691E02D1994BD
:040F5000F894FFCF43
:100F54000000070580005048415345303100436C80
:100F640069656E74207369646520697320776169AB
:100F740074696E6720666F7220696E7075742E00D6
:100F84005048415345303200476F743A2000000006
:0E0F940000002C035C02D5020103E5022103DC
:00000001FF
