:100000000C9418040C9449040C9449040C9449046D
:100010000C9449040C9449040C9449040C9449042C
:100020000C9449040C9449040C9449040C9449041C
:100030000C9449040C9449040C9449040C9449040C
:100040000C9449040C9449040C9449040C944904FC
:100050000C9449040C9449040C9449040C94EA0D42
:100060000C9449040C9441140C940D150C944904FF
:100070000C9449040C9449040C9449040C944904CC
:100080000C9449040C9449040C9449040C944904BC
:100090000C9474140C944C150C9449040C9449045D
:1000A0000C9449040C9449040C9449040C9449049C
:1000B0000C9449040C9449040C9449040C9449048C
:1000C0000C9449040C9449040C9449040C94A7140E
:1000D0000C948B150C9449040C94DA140C94CA15E6
:1000E0000C944904290F2C0F1F0F230F630F300F9F
:1000F000340F3A0F3E0F420F480F4C0F500F630F53
:10010000560F5A0F5E0F0C94322A0C94B12B0C949C
:10011000BA130C94882A0C943E360C94A1190C94B2
:10012000432A0C94560F0C943B2B0C94230F0C94E5
:100130001D2B0C94C8300C9402310C94112C0C948F
:10014000102C0C94CC2A0C941A2A0C944C0F0C945E
:1001500026110C94AB190C94511A0C94782F0C9412
:10016000480F0C9460300C944A340C9482190C940F
:10017000262A0C9439190C948E130C9491160C9415
:10018000290F0C946B300C94422A0C945A0F0C9447
:1001900096340C94DA130C9469290C94C3350C949E
:1001A000122A0C94420F0C949E130C943C310C9424
:1001B0003A0F0C9450190C948D130C9466190C94EE
:1001C000500F0C94BA090C941F0F0C943E0F0C9412
:1001D0002C0F0C947A310C9492300C94E5130C94FF
:1001E0007F300C94132A0C94300F0C94340F0C9421
:1001F000630F0C945E0F0C94B7210000090A0208EB
:100200000B0C0D07060304010000000000000000B5
:1002100000000000000000000000000000000000DE
:1002200000000000000011100F000000000000009E
:1002300000000000000000000000000000000000BE
:1002400001021020200808102040102040800201E8
:1002500002010804020101020408102040808040CD
:1002600020100804020180040201804020100804CC
:10027000020108040201010204081020408001026A
:100280000408102040800505050507050808080832
:10029000020202020A0A080804040404010101011E
:1002A0000101010103030303030303030407070719
:1002B0000C0C0C0C0C0C0C0C0202020206060606BE
:1002C000060606060B0B0B0B0B0B0B0B000020009E
:1002D0002300260029002C002F003200000100001E
:1002E00003010601090100002200250028002B005F
:1002F0002E003100340002010000050108010B014D
:1003000000002100240027002A002D0030003300C7
:1003100001010000040107010A017C3C3E5E2B3D07
:100320003F2F5B5D3B2C2A225C0000000000003E5A
:100330005B4F5B3E3E6B4F6B3E1C3E7C3E1C183C55
:100340007E3C181C577D571C1C5E7F5E1C00183CB1
:100350001800FFE7C3E7FF0018241800FFE7DBE7FA
:10036000FF30483A060E2629792926407F050507E1
:10037000407F05253F5A3CE73C5A7F3E1C1C08083D
:100380001C1C3E7F14227F22145F5F005F5F060902
:100390007F017F006689956A606060606094A2FF5B
:1003A000A29408047E040810207E201008082A1C4D
:1003B00008081C2A08081E101010100C1E0C1E0C19
:1003C00030383E3830060E3E0E06000000000000B9
:1003D000005F00000007000700147F147F14242A28
:1003E0007F2A1223130864623649562050000807FA
:1003F0000300001C2241000041221C002A1C7F1C1B
:100400002A08083E0808008070300008080808081C
:10041000000060600020100804023E5149453E0083
:10042000427F400072494949462141494D331814E1
:10043000127F1027454545393C4A49493141211130
:1004400009073649494936464949291E0000140022
:100450000000403400000008142241141414141445
:10046000004122140802015909063E415D594E7CA3
:100470001211127C7F494949363E414141227F4158
:1004800041413E7F494949417F090909013E4141B6
:1004900051737F0808087F00417F41002040413FA1
:1004A000017F081422417F404040407F021C027FB0
:1004B0007F0408107F3E4141413E7F090909063E05
:1004C0004151215E7F0919294626494949320301D4
:1004D0007F01033F4040403F1F2040201F3F4038E6
:1004E000403F631408146303047804036159494DC1
:1004F00043007F4141410204081020004141417FF7
:10050000040201020440404040400003070800206C
:10051000545478407F28444438384444442838446C
:1005200044287F385454541800087E090218A4A4A3
:100530009C787F0804047800447D40002040403DC2
:10054000007F1028440000417F40007C047804783C
:100550007C080404783844444438FC1824241818CF
:10056000242418FC7C08040408485454542404042B
:100570003F44243C4040207C1C2040201C3C403018
:10058000403C44281028444C9090907C4464544C47
:1005900044000836410000007700000041360800A2
:1005A00002010204023C2623263C1EA1A161123A4C
:1005B0004040207A38545455592155557941225498
:1005C000547842215554784020545579400C1E529D
:1005D0007212395555555939545454593955545442
:1005E000580000457C410002457D420001457C40A9
:1005F0007D1211127DF0282528F07C5455450020ED
:1006000054547C547C0A097F4932494949323A445E
:1006100044443A324A4848303A4141217A3A4240C9
:100620002078009DA0A07D3D4242423D3D4040409B
:100630003D3C24FF2424487E4943662B2FFC2F2B6E
:10064000FF0929F620C0887E09032054547941000F
:1006500000447D413048484A32384040227A007A8E
:100660000A0A727D0D19317D2629292F282629296C
:10067000292630484D40203808080808080808088E
:10068000382F10C8ACBA2F102834FA00007B0000B5
:1006900008142A142222142A14085500550055AAB9
:1006A00055AA55AAFF55FF55FF000000FF00101086
:1006B00010FF00141414FF001010FF00FF1010F0C2
:1006C00010F0141414FC001414F700FF0000FF00D5
:1006D000FF1414F404FC141417101F10101F101F23
:1006E0001414141F00101010F0000000001F101050
:1006F00010101F10101010F010000000FF1010104C
:10070000101010101010FF10000000FF140000FF68
:1007100000FF00001F10170000FC04F41414171051
:10072000171414F404F40000FF00F7141414141444
:100730001414F700F7141414171410101F101F14BA
:100740001414F4141010F010F000001F101F00001B
:10075000001F14000000FC140000F010F01010FF47
:1007600010FF141414FF141010101F00000000F0EC
:1007700010FFFFFFFFFFF0F0F0F0F0FFFFFF0000C1
:10078000000000FFFF0F0F0F0F0F3844443844FCE8
:100790004A4A4A347E02020606027E027E026355FF
:1007A0004941633844443C04407E201E2006027EBA
:1007B000020299A5E7A5991C2A492A1C4C720172CC
:1007C0004C304A4D4D303048784830BC625A463D36
:1007D0003E494949007E0101017E2A2A2A2A2A44EB
:1007E000445F444440514A444040444A5140000020
:1007F000FF0103E080FF000008086B6B083612362B
:100800002436060F090F060000181800000010100B
:10081000003040FF0101001F01011E00191D1712C9
:10082000003C3C3C3C0000000000BA09911639191C
:1008300011241FBECFEFD1E2DEBFCDBF00E00CBF61
:1008400015E0A0E0B2E0EEE1F2E700E00BBF02C08D
:1008500007900D92A234B107D9F72AE1A2E4B5E0DE
:1008600001C01D92A533B207E1F714E0C8E1D4E05E
:1008700000E006C021970109802FFE010E94DC38AC
:10088000C531D10780E00807A9F70E949E0C0C949F
:10089000F0370C9400002F923F924F925F926F922C
:1008A0007F928F929F92AF92BF92CF92DF92EF9200
:1008B000FF920F931F93CF93DF93CDB7DEB7CA5448
:1008C000D1090FB6F894DEBF0FBECDBF1C014B019E
:1008D0002A0139011EAF0DAF2196FFAEEEAE219772
:1008E0002396BFAEAEAE23970DB71EB725961FAFAA
:1008F0000EAF25978E01045E1F4FC8010E940A1A91
:1009000021E0A1016FED77E1CE0101960E94B718B9
:100910008B819C819F8F8E8F8D819E81AF81B885C9
:1009200088A399A3AAA3BBA389859A85AB85BC8517
:100930008CA39DA3AEA3BFA38DE0FE013D96DE0177
:10094000989601900D928A95E1F78A8D9B8D9EABCA
:100950008DABC8010E94921AF82ECE0101960E941A
:100960001D1AFF20C1F05601AA0CBB1CC301A0E058
:10097000B0E08FAB98AFA9AFBAAFE12CF12CC201B8
:10098000A0E0B0E029968CAF9DAFAEAFBFAF299786
:10099000702E612E2DC06BE072E08DE995E10E9412
:1009A0009811B1018DE995E10E94981167E28DE9F6
:1009B00095E10E94C711A9C0D401ED91FC91028874
:1009C000F389E02DC40119950FB6F8945EBE0FBEF1
:1009D0004DBEBFEFEB1AFB0A0FA918AD29AD3AAD1A
:1009E0000F5F1F4F2F4F3F4F0FAB18AF29AF3AAFDD
:1009F00023962EAD3FAD2397E216F30609F47EC091
:100A00004DB65EB6ADB7BEB7AA19BB090FB6F8941E
:100A1000BEBF0FBEADBFEDB7FEB73196FCAFEBAFBB
:100A2000F101A2A9B3A92FA938AD49AD5AAD0E94D1
:100A3000023929960CAD1DAD2EAD3FAD2997060F9D
:100A4000171F281F391FB901A801440F551F661F22
:100A5000771F872D962D0E94281AA5016BAD7CADBE
:100A6000872D962D0E941E1A8A159B0581F06CE138
:100A700072E08DE995E10E94B511872D962D0E94B7
:100A8000801A0FB6F8945EBE0FBE4DBE3EC0D401B4
:100A9000ED91FC910680F781E02DC401199501E0EC
:100AA00010E0960121964EAD5FAD21974E0D5F1D72
:100AB0006DAD7EADC4010E94BC340BAD1CAD20E019
:100AC00030E02C153D0509F477CFF8016191719163
:100AD0008F01762767277627C4012A962FAF2A979A
:100AE0002B963FAF2B970E946D352A962FAD2A97F4
:100AF0002B963FAD2B972F5F3F4FE3CFCE014C9608
:100B00000E94801ACE014C9602C0CE014C960E94E3
:100B10001D1A25968EAD9FAD25970FB6F8949EBFF2
:100B20000FBE8DBFC65BDF4F0FB6F894DEBF0FBEA2
:100B3000CDBFDF91CF911F910F91FF90EF90DF908C
:100B4000CF90BF90AF909F908F907F906F905F906D
:100B50004F903F902F900895AF92BF92CF92DF9227
:100B6000EF92FF920F931F93282FCB01BA01022E11
:100B7000000C330BD90144E0AA0FBB1F4A95E1F7E3
:100B8000A05DBD4F1496AD90BD90CD90DC901797B1
:100B9000220F331FF901E052FC4FE080F1800F2C4F
:100BA000000C000B110BFD013C9623812F93228139
:100BB0002F9321812F931C962C912F9320E030E0CE
:100BC000A9010E9463170F900F900F900F901F9133
:100BD0000F91FF90EF90DF90CF90BF90AF9008956E
:100BE000AF92BF92CF92DF92EF92FF920F931F933B
:100BF000282FCB01BA01022E000C330BD90144E09F
:100C0000AA0FBB1F4A95E1F7A05DBD4FAD90BD9007
:100C1000CD90DC901397220F331FF901EC52FC4F5B
:100C2000E080F1800F2C000C000B110BFD013896B9
:100C300023812F9322812F9321812F9318962C911A
:100C40002F9320E030E0A9010E9463170F900F90CE
:100C50000F900F901F910F91FF90EF90DF90CF902A
:100C6000BF90AF9008954F925F926F927F92AF9234
:100C7000BF92CF92DF92EF92FF920F931F93282F94
:100C8000CB01BA01A22F220FBB0BFD0124E0EE0F16
:100C9000FF1F2A95E1F7E05DFD4FE484F5840685AA
:100CA00017852481358146815781FD01EE0FFF1F95
:100CB000E052FC4F0190F081E02D2F01FF0F6608FC
:100CC00077087F926F925F924F92A12CB12C6501B1
:100CD0000E9463170F900F900F900F901F910F912C
:100CE000FF90EF90DF90CF90BF90AF907F906F908C
:100CF0005F904F9008954F925F926F927F92AF9264
:100D0000BF92CF92DF92EF92FF920F931F93282F03
:100D1000CB01BA01A22F220FBB0BFD0124E0EE0F85
:100D2000FF1F2A95E1F7E05DFD4FE084F184028525
:100D300013852081318142815381FD01EE0FFF1F18
:100D4000EC52FC4F0190F081E02D2F01FF0F66085F
:100D500077087F926F925F924F92A12CB12C650120
:100D60000E9463170F900F900F900F901F910F919B
:100D7000FF90EF90DF90CF90BF90AF907F906F90FB
:100D80005F904F900895E9E7F5E08281938184595F
:100D90009F4F2081318120563F4F36832583908796
:100DA00087830895E9E7F5E082E084838FE593E0A7
:100DB0009183808383E993E0938382830C94C306B9
:100DC0002091790530917A0537FD12C0E0917D05BB
:100DD000EE0FFF0BE052FC4F80819181AC014F532D
:100DE00051402417350734F09C012054314002C093
:100DF00020E030E080917B0590917C0597FD12C04A
:100E0000E0917D05EE0FFF0BEC52FC4F40815181CC
:100E1000BA01675D71098617970734F0CA01885DCA
:100E2000910902C080E090E030937A052093790523
:100E300090937C0580937B050895E9E7F5E0858133
:100E40009681805A910991838083878190858C5601
:100E50009109938382830C94E006E9E7F5E04781EA
:100E6000508522813381A581B6810190F081E02DEA
:100E7000BD016E1B7F0BCA01821B930B0895AF92BD
:100E8000BF92CF92DF92EF92FF920F931F93E9E709
:100E9000F5E02281338140815181618572858481B1
:100EA000E6E38E02C0011124E8EDAE2EB12CF0E491
:100EB000CF2EDD24D394E12CF12C00E010E08057FC
:100EC0009D4F0E944B041F910F91FF90EF90DF9078
:100ED000CF90BF90AF900895AF92BF92CF92DF9224
:100EE000EF92FF920F931F930E942D077C0123E046
:100EF000E21AF1088B0103501109E9E7F5E02781B7
:100F00003085235031094581568143505109A185CF
:100F1000B285848166E38602C001112467E0A62EB3
:100F2000B12C77E0C72ED12CBD0180579D4F0E9478
:100F30004B041F910F91FF90EF90DF90CF90BF90E7
:100F4000AF9008950F931F930E942D0700E018EFB4
:100F500023E030E0AC0180918205909183050E94EE
:100F60001B2D1F910F910895E9E7F5E0DC014D91EC
:100F70005C91119760EA649F9001659F300D112488
:100F800040815181240F351F3183208312962D918A
:100F90003C9113974CE6429FC001439F900D112452
:100FA00022813381820F931F938382830C94E00606
:100FB000CF92DF92EF92FF920F931F93CF93DF9325
:100FC0006C01C9E7D5E089859A85DC01ED91FC913A
:100FD000048CF58DE02D20EEE22E27E0F22E08E1C4
:100FE00010E020E431E048ED50E060E070E0199559
:100FF0006FE178EF89859A850E945A304CED50E078
:1010000065E070E089859A850E944E3062E08985AE
:101010009A850E945430B60189859A85DF91CF91D7
:101020001F910F91FF90EF90DF90CF900C94B5112E
:10103000CF92DF92EF92FF920F931F93CF93DF93A4
:10104000CDB7DEB728970FB6F894DEBF0FBECDBF81
:1010500089E7E82E85E0F82EF70145815681052EB7
:10106000000C660B770B84810E94AC05162FC72EEF
:10107000D82E092FF70147815085052E000C660BED
:10108000770B84810E94F005212F3C2D4D2D502F90
:1010900028960FB6F894DEBF0FBECDBFDF91CF917B
:1010A0001F910F91FF90EF90DF90CF900895809166
:1010B0007E0590917F05863091058CF0E0917D054D
:1010C000EE0FFF0BE052FC4F20813181A90145500A
:1010D0005109841795072CF0C901069702C086E0D4
:1010E00090E090937F0580937E058091800590919C
:1010F0008105863091058CF0E0917D05EE0FFF0BA8
:10110000EC52FC4F20813181A901455051098417CF
:1011100095072CF0C901069702C086E090E09093F5
:1011200081058093800508958F929F92AF92BF9220
:10113000CF92DF92EF92FF92CF93DF9320917D05C4
:10114000422F022E000C550B840F951F86309105FF
:1011500014F085E090E0EC0197FF02C0C0E0D0E021
:10116000C417D50709F43FC040918005509181050F
:10117000052E000C660B770B822F0E94F0056B0189
:101180007C0180917E0590917F05AC01990F660BE3
:10119000770B80917D050E94AC054B015C01B70186
:1011A000A6018C2F0E947B066B017C01B501A40176
:1011B0008C2F0E94330670937F0560937E05D0923A
:1011C0008105C0928005C0937D050E945708DF917C
:1011D000CF91FF90EF90DF90CF90BF90AF909F9016
:1011E0008F900C941D07DF91CF91FF90EF90DF90CF
:1011F000CF90BF90AF909F908F900895CF93DF9343
:1012000000D01F92CDB7DEB7FC0180917E05909192
:101210007F0520813181280F391F30937F0520936E
:101220007E05209180053091810582819381820F16
:10123000931F90938105809380050E9457080E9418
:101240002D071A8219821C821B82653071051CF4DD
:101250002FEF3FEF05C06C33714024F021E030E008
:101260003A832983853091051CF48FEF9FEF05C0E9
:10127000843D910524F081E090E09C838B838981FB
:101280009A81892B21F48B819C81892B39F081E013
:1012900080938B05CE0101960E94B4070F900F90AA
:1012A0000F900F90DF91CF9108950F931F93CF93DD
:1012B000DF9300D01F92CDB7DEB782E00E94D00F3F
:1012C00021E0892B09F020E02093880583E00E942B
:1012D000D00F21E0892B09F020E02093890588E0D8
:1012E0000E94D00F21E0892B09F020E020938A058D
:1012F00087E30E94ED0E2091860530918705821BC1
:10130000930B97FDCF968C0136E0159507953A958E
:10131000E1F786E30E94ED0E20918405309185056A
:10132000821B930B97FDCF9626E0959587952A957E
:10133000E1F71C830B8322273327281B390B3A83C1
:101340002983232B11F4012B61F00E946C07CE013D
:1013500001960E94FE0880918B05811102C00E94B7
:10136000A2070F900F900F900F90DF91CF911F91D8
:101370000F91089510927A051092790510927C05CC
:1013800010927B0510927F0510927E0510928105C8
:1013900010928005109285051092840510928705A1
:1013A00010928605E9E7F5E0158A168A178A108EED
:1013B000118E128E138E148E389685E1E931F8075E
:1013C00099F780E091E00E94F90F90937605809361
:1013D00075052FEF49E06AE082E495E00C949331C3
:1013E000CF93DF930E948B0E62E082E00E94640F35
:1013F00062E083E00E94640F62E088E00E94640F74
:1014000087E30E94ED0EEC0186E30E94ED0E9093BF
:10141000850580938405D0938705C093860540E8B1
:1014200055E260E070E08DE995E10E9409168DE9D2
:1014300095E10E94DA1310928D0510928C0582E4DA
:1014400095E0909383058093820540E050E0BA01D7
:101450000E9454328091820590918305DC01ED91C8
:10146000FC910488F589E02D63E01995809182054F
:1014700090918305DC01ED91FC91068CF78DE02DB8
:101480006FE170E0199566E08FED97E10E94A41777
:10149000811119C06CEE73E08DE995E10E94B511E0
:1014A00068E174E08DE995E10E94B51167E374E0AD
:1014B0008DE995E10E94B51161E574E08DE995E152
:1014C0000E94B511FFCF0E94D2060E943F070E94E2
:1014D000A2078CE894E0DF91CF910C94D8078F920B
:1014E0009F92AF92BF92CF92DF92EF92FF920F93B3
:1014F0001F93CF93DF93CDB7DEB727970FB6F8943E
:10150000DEBF0FBECDBF8C016A017B011092780552
:1015100010927705E0917505F091760510820E9492
:10152000340E4B015C010E94340EDC01CB018819A2
:101530009909AA09BB098C159D05AE05BF0508F0E0
:1015400045C08DE995E10E948E13892B61F38DE9E9
:1015500095E10E94BA138A3011F08D30A9F46091A0
:10156000750570917605CE0101960E944712BE0165
:101570006F5F7F4FC8010E945D12CE0101960E94ED
:10158000D91180E090E024C0209177053091780552
:101590002F3F310540F64091750550917605FA01CF
:1015A000E20FF31F808320917705309178052F5F3C
:1015B0003F4F309378052093770580917505909182
:1015C0007605FC01E20FF31F1082ADCF8FEF9FEF86
:1015D00027960FB6F894DEBF0FBECDBFDF91CF9137
:1015E0001F910F91FF90EF90DF90CF90BF90AF9041
:1015F0009F908F900895AF92BF92CF92DF92EF921B
:10160000FF920F931F93CF93DF93CDB7DEB7C154F3
:10161000D1090FB6F894DEBF0FBECDBF2AAB3BABEE
:101620004CAB5DAB6EAB7FAB88AF99AFAAAEBBAE38
:10163000CCAEDDAEEEAEFFAE21960FAF2197229677
:101640001FAF229782E994E00E94D80762EC74E011
:10165000CE018B960E94471200E010E00130110588
:1016600009F49FC024F40115110581F0F7CF023071
:10167000110529F00330110509F437C1EFCF89E7CF
:10168000C82E85E0D82EE12CF12C24C14AAD5BADEB
:101690006CAD7DAD2AE0CE0101960E949512229696
:1016A0004CAD5DAD6EAD7FAD22972AE0CE010896C0
:1016B0000E9495124AA95BA96CA97DA92AE0CE01D6
:1016C0000F960E9495124EA95FA968AD79AD2AE0E8
:1016D000CE014D960E94951264EA74E0CE014696C2
:1016E0000E944712BE01635E7F4FCE0146960E9464
:1016F000F11265EA74E00E940413BE01615F7F4F3E
:101700000E94F11265EA74E00E940413BE01685F52
:101710007F4F0E94F11265EA74E00E940413BE013B
:101720006F5F7F4F0E94F11261EC74E00E9404131E
:10173000BC01CE0184960E947412CE0146960E948E
:10174000D911CE014D960E94D911CE010F960E945B
:10175000D911CE0108960E94D911CE0101960E949E
:10176000D911BE016C5D7F4F8DE995E10E94631137
:1017700040E157E260E070E0CE018B960E946F0A74
:1017800097FD0AC060E070E0CE018B960E942E1398
:101790008E3411F401E010E0CE0184960E94D9113C
:1017A0005DCF42E050E0BE01655D7F4FCE01019606
:1017B0000E947613CE0101960E94821370938D05CC
:1017C00060938C05CE0101960E94D91180918C0501
:1017D00090918D05892B59F487EA94E00E94D807EF
:1017E00068EB7BE080E090E00E94650E91C060ECC9
:1017F00074E08DE995E10E94981102E010E02ECF8F
:1018000048EE53E060E070E0CE018B960E946F0AD4
:1018100097FD6BC060E070E0CE018B960E942E13A6
:10182000873509F062C060EC74E08DE995E10E94B3
:10183000981102E010E08FA598A998012F5F3F4F03
:1018400059010817190740F4B801CE018B960E9480
:101850002E13803209F047C0980142E050E0BE01EB
:10186000655D7F4FCE0101960E943013CE01019637
:101870000E948213F601618F728F838F948FCE0145
:1018800001960E94D911A501BE01655D7F4FCE0171
:1018900001960E947613CE0101960E948213F601F2
:1018A000658B768B878B908FCE0101960E94D91124
:1018B00080918C0590918D059C0121503109E21693
:1018C000F30699F038E0C30ED11C019771F08FEF49
:1018D000E81AF80A80918C0590918D05E816F906B2
:1018E0000CF48ECF02C08501A6CF48EE53E060E035
:1018F00070E0CE018B960E946F0A97FDADCE60E03E
:1019000070E0CE018B960E942E13853409F0A4CE90
:10191000CE018B960E94D911CF5BDF4F0FB6F894A2
:10192000DEBF0FBECDBFDF91CF911F910F91FF9012
:10193000EF90DF90CF90BF90AF900895CF93DF935B
:10194000CDB7DEB76A970FB6F894DEBF0FBECDBF36
:101950000E94F00919861A861B861C861D861E8623
:101960001F86188A212C312C109288051092890527
:1019700010928A0510928B050E9455098091880566
:10198000882341F081E090E00E94940821E02093B8
:101990008B050BC080918905882339F08FEF9FEF6D
:1019A0000E94940831E030938B0580918A0588234A
:1019B00099F12328B9F40E94180829873A874B87A0
:1019C0005C876D877E878F87988B83EC94E00E947D
:1019D000D80788E00E94D00F892BD9F322242394C2
:1019E000312C1AC00E94180859016A017B018C0130
:1019F00029853A854B855C856D857E858F8598899F
:101A00000E94FB0A41E040938B0588E00E94D00FC2
:101A1000892BD9F3212C312C80918B05882309F453
:101A2000A3CF0E943F070E94A20780918C0590914E
:101A30008D05823091050CF482C029E7C22E25E085
:101A4000D22E1A8A198A98E0C90ED11C80918C0571
:101A500090918D050197A989BA89A817B9070CF04B
:101A6000A9C0D60151964D915D916D917C9154978D
:101A700080917D050E947B064B015C01F601458546
:101A800056856785708980917D050E9433066F8B2E
:101A9000788F898F9A8F29893A892F5F3F4F3A8BA8
:101AA000298BD60159964D915D916D917C915C97F2
:101AB00080917D050E947B062B013C01F601458942
:101AC00056896789708D80917D050E94330620912B
:101AD000790530917A057901330F000B110BE091F4
:101AE0007B05F0917C059F01FF0F440B550B2B8B61
:101AF0003C8B4D8B5E8B421A530A640A750A9B011C
:101B0000AC012E193F09400B510B8B899C89AD8983
:101B1000BE89881A990AAA0ABB0A6F89788D898DAD
:101B20009A8D6E197F09800B910B9FE1E92EF12CA4
:101B30008201A40182E495E00E943B2B84CF0197AF
:101B4000C9F540919205509193056091940570916B
:101B5000950580917D050E947B066B017C0140917B
:101B60008E0550918F05609190057091910580913F
:101B70007D050E94330680907B0590907C05092CA2
:101B8000000CAA08BB08C818D908EA08FB0880900E
:101B9000790590907A05092C000CAA08BB086819F1
:101BA00079098A099B092FE130E0A60182E495E0DA
:101BB0000E9492302114310429F48CE894E00E94B0
:101BC000D807D2CE83EC94E00E94D8072224239435
:101BD000312CCACE1F920F920FB60F9211242F9361
:101BE0003F938F939F93AF93BF9380912F159091C5
:101BF0003015A0913115B091321530912E1523E09A
:101C0000230F2D3720F40196A11DB11D05C026E834
:101C1000230F0296A11DB11D20932E1580932F1521
:101C200090933015A0933115B093321580913315F0
:101C300090913415A0913515B09136150196A11DDE
:101C4000B11D8093331590933415A0933515B0933F
:101C50003615BF91AF919F918F913F912F910F902A
:101C60000FBE0F901F9018952FB7F89460912F1505
:101C70007091301580913115909132152FBF0895D4
:101C80003FB7F8948091331590913415A091351594
:101C9000B091361526B5A89B05C02F3F19F00196C7
:101CA000A11DB11D3FBFBA2FA92F982F8827820FE2
:101CB000911DA11DB11DBC01CD0142E0660F771F32
:101CC000881F991F4A95D1F70895CF92DF92EF921E
:101CD000FF92CF93DF936B017C010E94400EEB01DA
:101CE000C114D104E104F10479F00E94400E6C1B90
:101CF0007D0B683E7340A0F381E0C81AD108E1086B
:101D0000F108C851DC4FECCFDF91CF91FF90EF90FD
:101D1000DF90CF900895789484B5826084BD84B5B7
:101D2000816084BD85B5826085BD85B5816085BDD6
:101D3000EEE6F0E0808181608083E1E8F0E01082EF
:101D4000808182608083808181608083E0E8F0E030
:101D5000808181608083E1EBF0E08081846080831A
:101D6000E0EBF0E0808181608083E1E9F0E0808158
:101D700082608083808181608083E0E9F0E08081FF
:101D800081608083E1EAF0E08081826080838081ED
:101D900081608083E0EAF0E0808181608083E1E21D
:101DA000F1E0808182608083808181608083E0E2D5
:101DB000F1E0808181608083EAE7F0E080818460E7
:101DC0008083808182608083808181608083808144
:101DD000806880831092C1000895863308F086538E
:101DE00090917B00282F2870977F922B90937B00F7
:101DF00087702091000290E4299F90011124822B8A
:101E000080937C0080917A00806480937A00809136
:101E10007A0086FDFCCF809178002091790090E0D7
:101E2000922B089590E0FC013197E131F10508F023
:101E30004AC08827EE58FF4F8F4F0C94DC388091B2
:101E400080008F7703C0809180008F7D8093800019
:101E5000089584B58F7702C084B58F7D84BD0895C1
:101E60008091B0008F7703C08091B0008F7D809308
:101E7000B0000895809190008F7707C08091900006
:101E80008F7D03C080919000877F8093900008959C
:101E90008091A0008F7707C08091A0008F7D03C044
:101EA0008091A000877F8093A000089580912001F9
:101EB0008F7707C0809120018F7D03C08091200122
:101EC000877F809320010895CF93DF9390E0FC01FA
:101ED000E05CFD4F2491FC01EA57FD4F849188237B
:101EE00061F190E0880F991FFC01E050FD4FC59112
:101EF000D491FC01EA51FD4FA591B491611109C043
:101F00009FB7F8948881209582238883EC912E23B3
:101F10000BC0623061F49FB7F8943881822F8095AE
:101F200083238883EC912E2B2C939FBF06C08FB701
:101F3000F894E8812E2B28838FBFDF91CF910895ED
:101F40001F93CF93DF93282F30E0F901E650FE4F27
:101F50008491F901E05CFD4FD491F901EA57FD4FFE
:101F6000C491CC23C9F0162F81110E94120FEC2FBF
:101F7000F0E0EE0FFF1FEA51FD4FA591B4918FB72E
:101F8000F894111105C09C91ED2FE095E92302C052
:101F9000EC91ED2BEC938FBFDF91CF911F910895C2
:101FA000CF93DF93282F30E0F901E650FE4F849164
:101FB000F901E05CFD4FD491F901EA57FD4FC4915E
:101FC000CC2391F081110E94120FEC2FF0E0EE0F64
:101FD000FF1FE453FD4FA591B491EC91ED2381E0F7
:101FE00090E021F480E002C080E090E0DF91CF91AA
:101FF0000895CF93DF938230910510F482E090E052
:10200000E091331AF091341A20E030E0C0E0D0E0E3
:10201000309711F14081518148175907C0F0481796
:10202000590761F482819381209719F09B838A83F9
:102030002BC09093341A8093331A26C02115310592
:1020400019F04217530718F49A01BE01DF01EF019E
:102050000280F381E02DDCCF2115310509F1281B29
:10206000390B2430310590F412968D919C91139781
:102070006115710521F0FB019383828304C0909365
:10208000341A8093331AFD01329644C0FD01E20FE9
:10209000F31F81939193225031092D933C933AC0C1
:1020A0002091311A3091321A232B41F420910302EE
:1020B000309104023093321A2093311A2091010298
:1020C000309102022115310541F42DB73EB7409100
:1020D000050250910602241B350BE091311AF09154
:1020E000321AE217F307A0F42E1B3F0B281739070B
:1020F00078F0AC014E5F5F4F2417350748F04E0F64
:102100005F1F5093321A4093311A8193919302C00A
:10211000E0E0F0E0CF01DF91CF9108950F931F939E
:10212000CF93DF93009709F48CC0FC0132971382A0
:1021300012820091331A1091341A0115110581F49D
:1021400020813181820F931F2091311A3091321AF0
:102150002817390779F5F093321AE093311A71C0D4
:10216000D80140E050E0AE17BF0750F412962D9111
:102170003C911397AD012115310509F1D901F3CF38
:102180009D01DA013383228360817181860F971F5D
:102190008217930769F4EC0128813981260F371FD4
:1021A0002E5F3F4F318320838A819B81938382837B
:1021B000452B29F4F093341AE093331A42C0139656
:1021C000FC93EE931297ED01499159919E01240FD2
:1021D000351FE217F30771F480819181840F951FF9
:1021E000029611969C938E938281938113969C9371
:1021F0008E931297E0E0F0E0D80112968D919C91B9
:102200001397009719F0F8018C01F6CF8D919C91EE
:1022100098012E5F3F4F820F931F2091311A30910A
:10222000321A2817390769F4309729F41092341AB2
:102230001092331A02C0138212821093321A009342
:10224000311ADF91CF911F910F910895CF92DF92B4
:10225000EF92FF920F931F93CF93DF936C01EB01EB
:102260007B01E40EF51E00E010E0CE15DF0561F005
:102270006991D601ED91FC910190F081E02DC601AC
:102280001995080F191FF1CFC801DF91CF911F9148
:102290000F91FF90EF90DF90CF9008956115710539
:1022A00079F0FB0101900020E9F73197AF01461B5F
:1022B000570BDC01ED91FC910280F381E02D199424
:1022C00080E090E00895AF92BF92CF92DF92EF92BC
:1022D000FF920F931F93CF93DF936C017B01C0E0BC
:1022E000D0E000E010E0D70114968D919C911597F5
:1022F000C817D90788F4D601ED91FC91A080B18070
:10230000BE01C7010E941D13682FC601F501199572
:10231000080F191F2196E7CFC801DF91CF911F91B8
:102320000F91FF90EF90DF90CF90BF90AF90089506
:102330000C944E11DC01ED91FC910190F081E02DA7
:1023400019940F931F93CF93DF93EC016DE00E94DC
:102350009A118C016AE0CE010E949A11800F911FA0
:10236000DF91CF911F910F9108950F931F93CF93FA
:10237000DF93EC010E944E118C01CE010E94A1114D
:10238000800F911FDF91CF911F910F9108950F93AF
:102390001F93CF93DF93EC010E949A118C01CE0121
:1023A0000E94A111800F911FDF91CF911F910F917A
:1023B0000895FC01808191810C948E10CF93DF935E
:1023C000EC0188819981009711F00E948E1019828A
:1023D00018821D821C821B821A82DF91CF91089580
:1023E0000F931F93CF93DF93EC018B016F5F7F4FB0
:1023F000888199810E94AD36009731F09983888356
:102400001B830A8381E001C080E0DF91CF911F919F
:102410000F910895CF93DF93EC0188819981892BE7
:1024200029F08A819B818617970760F4CE010E946C
:10243000F011882341F08C819D81892B19F4E8816A
:10244000F981108281E0DF91CF910895EF92FF92A0
:102450000F931F93CF93DF93EC017B018A01BA01A5
:102460000E940A12811104C0CE010E94DE1107C031
:102470001D830C83B701888199810E941438CE0195
:10248000DF91CF911F910F91FF90EF900895FC0184
:1024900011821082138212821582148216826115B3
:1024A000710551F0FB0101900020E9F73197AF0170
:1024B000461B570B0C9426120895CF93DF93EC0123
:1024C000FB018617970761F06081718161157105C5
:1024D00029F0448155810E94261202C00E94DE111B
:1024E000CE01DF91CF910895FC01118210821382F9
:1024F00012821582148216820C945D12CF93DF93A0
:10250000EC016115710559F0FB0101900020E9F71C
:102510003197AF01461B570B0E94261202C00E9442
:10252000DE11CE01DF91CF9108950F931F93CF93CA
:10253000DF93CDB7DEB7A2970FB6F894DEBF0FBE1C
:10254000CDBF8C01CB01BA01F80111821082138238
:10255000128215821482168230E0AE014F5F5F4F07
:102560000E942A38BE016F5F7F4FC8010E947E1211
:10257000A2960FB6F894DEBF0FBECDBFDF91CF910C
:102580001F910F910895EF92FF920F931F93CF9396
:10259000DF93FC01248135816115710511F480E020
:1025A00019C041155105A9F07B01EC018A01020F08
:1025B000131FB8010E940A12882389F328813981E8
:1025C0008C819D81B701820F931F0E9414381D8357
:1025D0000C8381E0DF91CF911F910F91FF90EF90DD
:1025E0000895CF93DF93EC01FB0144815581608115
:1025F00071810E94C312811103C0CE010E94DE11BD
:10260000CE01DF91CF910895CF93DF93EC01611557
:10261000710561F0FB0101900020E9F73197AF01EE
:10262000461B570B0E94C312811103C0CE010E94AA
:10263000DE11CE01DF91CF910895FC012481358117
:102640006217730748F480819181009729F0FC019B
:10265000E60FF71F8081089580E008950C941D1304
:10266000BF92CF92DF92EF92FF920F931F93CF937F
:10267000DF937C016B018A01E9012417350720F4FF
:10268000812F8901C42FD82F62EC74E0C7010E940A
:102690004712D60114968D919C911597801791073A
:1026A000D0F08C179D0708F4EC01D601ED91FC9158
:1026B0001197EC0FFD1FB08010824D915C91BA0113
:1026C000600F711FC7010E947E12D601ED91FC912F
:1026D000EC0FFD1FB082C701DF91CF911F910F91C9
:1026E000FF90EF90DF90CF90BF900895CF93DF934E
:1026F000EC01FB01248135810E943013CE01DF9172
:10270000CF910895FC0180819181009711F00C9484
:10271000C93760E070E0CB0108950895FC0124857D
:102720003585F901E05CFF4F8081918132962081EF
:102730003181821B930B8F7399270895DC011C96BE
:10274000ED91FC911D97DF01A05CBF4F2D913C9155
:10275000119712968D919C9111972817390739F08E
:102760008D919C91E80FF91F808190E008958FEF83
:102770009FEF0895FC01A485B585FD01E05CFF4F46
:10278000208131813296808191812817390779F033
:1027900080819181A80FB91F8C91208131812F5F99
:1027A0003F4F2F7333273183208390E008958FEFBD
:1027B0009FEF0895FC0181A1882329F0A489B589A0
:1027C0008C9186FFFBCF11A208950F931F93CF9397
:1027D000DF93FC01A685B7858D01005C1F4FE801E2
:1027E0008881998101968F739927AD014E5B5F4F68
:1027F000EA012881398182179307D1F3E801288102
:102800003981A20FB31F6C93A685B785A05CBF4F1B
:1028100011969C938E93A689B7892C9181E090E0C4
:10282000078C02C0880F991F0A94E2F7822B8C93C1
:1028300081E081A30488F589E02D80818064808314
:1028400081E090E0DF91CF911F910F910895FB01FE
:10285000E05CFF4F208131812F5F3F4F2F73332783
:10286000DB01AE5BBF4F4D915C912417350741F002
:1028700040815181DB01A40FB51F8C9331832083EC
:1028800008951F920F920FB60F9211240BB60F925C
:102890002F933F934F935F936F937F938F939F9368
:1028A000AF93BF93EF93FF938091C00082FD07C069
:1028B0008091C6006BE977E10E94271402C08091E5
:1028C000C600FF91EF91BF91AF919F918F917F9142
:1028D0006F915F914F913F912F910F900BBE0F9091
:1028E0000FBE0F901F9018951F920F920FB60F9268
:1028F00011240BB60F922F933F934F935F936F93D7
:102900007F938F939F93AF93BF93EF93FF938091A8
:10291000C80082FD07C08091CE0063E177E10E948C
:10292000271402C08091CE00FF91EF91BF91AF912B
:102930009F918F917F916F915F914F913F912F91D7
:102940000F900BBE0F900FBE0F901F9018951F9207
:102950000F920FB60F9211240BB60F922F933F9345
:102960004F935F936F937F938F939F93AF93BF9397
:10297000EF93FF938091D00082FD07C08091D60035
:102980006BE876E10E94271402C08091D600FF9187
:10299000EF91BF91AF919F918F917F916F915F91D7
:1029A0004F913F912F910F900BBE0F900FBE0F9044
:1029B0001F9018951F920F920FB60F9211240BB60D
:1029C0000F922F933F934F935F936F937F938F93C8
:1029D0009F93AF93BF93EF93FF938091300182FD5C
:1029E00007C08091360163E076E10E94271402C09F
:1029F00080913601FF91EF91BF91AF919F918F919F
:102A00007F916F915F914F913F912F910F900BBEEE
:102A10000F900FBE0F901F9018951F920F920FB638
:102A20000F9211240BB60F922F933F938F939F9386
:102A3000EF93FF93209197173091981780919917F2
:102A400090919A172817390731F48091C1008F7D32
:102A50008093C10014C0E0919917F0919A17E95A38
:102A6000F84E20818091991790919A1701968F7353
:102A7000992790939A17809399172093C600FF91F6
:102A8000EF919F918F913F912F910F900BBE0F90DF
:102A90000FBE0F901F9018951F920F920FB60F92B6
:102AA00011240BB60F922F933F938F939F93EF9325
:102AB000FF9320910F17309110178091111790916B
:102AC00012172817390731F48091C9008F7D809340
:102AD000C90014C0E0911117F0911217E153F94E9B
:102AE0002081809111179091121701968F73992769
:102AF00090931217809311172093CE00FF91EF91BE
:102B00009F918F913F912F910F900BBE0F900FBE11
:102B10000F901F9018951F920F920FB60F921124CD
:102B20000BB60F922F933F938F939F93EF93FF9347
:102B300020918716309188168091891690918A1677
:102B40002817390731F48091D1008F7D8093D1000F
:102B500014C0E0918916F0918A16E95BF94E208144
:102B60008091891690918A1601968F739927909378
:102B70008A16809389162093D600FF91EF919F913A
:102B80008F913F912F910F900BBE0F900FBE0F9022
:102B90001F9018951F920F920FB60F9211240BB62B
:102BA0000F922F933F938F939F93EF93FF932091D7
:102BB000FF1530910016809101169091021628178A
:102BC000390731F4809131018F7D8093310114C038
:102BD000E0910116F0910216E154FA4E20818091A5
:102BE00001169091021601968F7399279093021601
:102BF0008093011620933601FF91EF919F918F9161
:102C00003F912F910F900BBE0F900FBE0F901F9012
:102C10001895CF92DF92EF92FF920F931F93CF936D
:102C2000DF93EC016A017B014115514E610571058D
:102C300009F1EC89FD8981E090E008A002C0880FCD
:102C4000991F0A94E2F7808360E079E08DE390E0D9
:102C5000A70196010E949B3889019A010150110930
:102C60002109310936952795179507959801011582
:102C70001041A8F0EC89FD89108260E874E88EE1CB
:102C800090E0A70196010E949B38DA01C9010197E3
:102C9000A109B109B695A795979587959C01E889F3
:102CA000F9893083EA89FB89208319A2EE89FF899B
:102CB000408181E090E09C010C8C02C0220F331F08
:102CC0000A94E2F7242B2083EE89FF8940819C013E
:102CD0000D8C02C0220F331F0A94E2F7242B2083AD
:102CE000EE89FF8940819C010E8C02C0220F331FA8
:102CF0000A94E2F7242B2083EE89FF8920810F8C30
:102D000002C0880F991F0A94E2F78095822380837E
:102D1000DF91CF911F910F91FF90EF90DF90CF90B7
:102D20000895CF92DF92EF92FF92EDE9F5E11382E1
:102D3000128288EEC82E83E0D82EE12CF12CC482BA
:102D4000D582E682F7826BEC74E0718360838BE955
:102D500097E19587848787E597E19787868785EC54
:102D600090E0918B808B84EC90E0938B828B80EC55
:102D700090E0958B848B81EC90E0978B868B82EC36
:102D800090E0918F808F86EC90E0938F828F44E06B
:102D9000448F33E0358F27E0268F95E0978F81E0D1
:102DA00080A3EBE7F5E113821282C482D582E6822A
:102DB000F78271836083A3E1B7E1B587A487AFECA5
:102DC000B6E1B787A687ADECB0E0B18BA08BACECD9
:102DD000B0E0B38BA28BA8ECB0E0B58BA48BA9ECD0
:102DE000B0E0B78BA68BAAECB0E0B18FA08FAEECB1
:102DF000B0E0B38FA28F448F358F268F978F80A33B
:102E0000E9E5F5E113821282C482D582E682F78277
:102E100071836083ABE8B6E1B587A487A7E4B6E128
:102E2000B787A687A5EDB0E0B18BA08BA4EDB0E08D
:102E3000B38BA28BA0EDB0E0B58BA48BA1EDB0E07D
:102E4000B78BA68BA2EDB0E0B18FA08FA6EDB0E05E
:102E5000B38FA28F448F358F268F978F80A3E7E3A0
:102E6000F5E113821282C482D582E682F7827183F1
:102E7000608363E076E1758764876FEB75E1778740
:102E8000668765E371E0718B608B64E371E0738B3F
:102E9000628B60E371E0758B648B61E371E0778B2B
:102EA000668B62E371E0718F608F66E371E0738F10
:102EB000628F448F358F268F978F80A3FF90EF907E
:102EC000DF90CF9008954F925F926F927F92AF9272
:102ED000BF92CF92DF92EF92FF920F931F93CF9307
:102EE000DF93CDB7DEB729013A019B01AC0124196C
:102EF0003509460957098A899B89AC89BD89BC0176
:102F0000CD016A197B098C099D090E948B38A801A3
:102F1000970124193509460957090E94BD38CA018D
:102F2000B9016A0D7B1D8C1D9D1DDF91CF911F91F5
:102F30000F91FF90EF90DF90CF90BF90AF907F9078
:102F40006F905F904F9008950F931F93CF93DF93EF
:102F5000EC01462F61E00E949C22882391F08E01B3
:102F6000045F1F4F41E0BE01C8010E945228882320
:102F700051F0B801CE018A960E94781B91E0811130
:102F80000AC090E008C040E0BE01C8010E9452287B
:102F90008823B9F3EECF892FDF91CF911F910F9145
:102FA0000895FC01DB0112968D919C9113979383F8
:102FB00082838DEE94E09183808314968C91149794
:102FC000848315968C911597858316964D915D9106
:102FD0006D917C91199746835783608771871A9604
:102FE0004D915D916D917C911D97428753876487C8
:102FF00075871E964D915D916D917C915197468795
:103000005787608B718B52968C915297828B539617
:103010004D915D916D917C915697438B548B658B4F
:10302000768B57964D915D916D917C915A97478B18
:10303000508F618F728F5B968D919C915C97948F6E
:10304000838F08954F925F926F927F928F929F929B
:10305000AF92BF92CF92DF92EF92FF920F931F93A6
:10306000CF93DF93CDB7DEB7C754D1090FB6F8942D
:10307000DEBF0FBECDBF6C015A014901665D7F4FB7
:103080007E018EE1E80EF11CC7010E94D1171C825F
:103090001B828DEE94E09A8389831E828501FE0156
:1030A00031963F0127016FE270E0C8010E940938A4
:1030B0000097D9F1F80120812F3219F40F5F1F4FCB
:1030C000F2CF801B8D3008F08CE0E82EF12CA701A8
:1030D000B801CE01CB960E941B38EBE3F0E0EC0F79
:1030E000FD1FEE0DFF1D1082C3010E94F41D21E0A3
:1030F000AE01455C5F4FB201C3010E94281F8111E0
:1031000009C0F601138212828DEE94E091838083D0
:10311000158214C00E0D1F1DC2010E94F41D942DB6
:10312000852D2301692E782EBECF0A191B09F401C3
:1031300011830083B201C6010E94D117C601C95B89
:10314000DF4F0FB6F894DEBF0FBECDBFDF91CF913A
:103150001F910F91FF90EF90DF90CF90BF90AF90B5
:103160009F908F907F906F905F904F900895CF9237
:10317000DF92FF920F931F93CF93DF93CDB7DEB70C
:10318000C955D1090FB6F894DEBF0FBECDBF6C0193
:103190008A01F22E9E01285A3F4FCE01CB960E9403
:1031A00022186A968EAD9FAD6A97080F191FF80115
:1031B000808181110AC0BE01655C7F4FCE010196FE
:1031C0000E94D11747ED54E03EC019A218A28DEE1F
:1031D00094E09F8F8E8F1BA221968FAD2197811136
:1031E00004C0C6010E940A1A34C082502F2DA801C3
:1031F000823048F469E078E1CE014E960E94281FA3
:1032000081110EC0EECFBE01655C7F4FCE014E96A0
:103210000E94281F882329F3CE01CB960E94F41D1B
:103220009F2D967041F049A95AA96BA97CA9CE019E
:103230004E960E94171DBE01625E7F4FCE01019621
:103240000E94D117A801BE016F5F7F4FC6010E9487
:10325000D519C601C75ADF4F0FB6F894DEBF0FBEAF
:10326000CDBFDF91CF911F910F91FF90DF90CF9055
:103270000895EFEDF7E1158216821186138682E03C
:1032800090E0A0E0B0E084879587A687B78713A277
:1032900015A614A68DEE94E093A782A717A608950D
:1032A000CF93DF931F92CDB7DEB76983DC01ED9139
:1032B000FC910280F381E02D41E050E0BE016F5FA0
:1032C0007F4F19950F90DF91CF910895CF93DF93A2
:1032D000EC01898D9A8D009739F481E090E09B8311
:1032E0008A8380E090E00BC0FC01138212820E946E
:1032F0001620E98DFA8D22813381232B71F7DF911E
:10330000CF910895FC01818D928D009711F00C945E
:10331000AD1D0895CF93DF931F92CDB7DEB741E087
:1033200050E0BE016F5F7F4F0E94C91B019719F4E7
:10333000898190E002C08FEF9FEF0F90DF91CF91D6
:103340000895FC01818D928D009711F00C948A19DB
:103350008FEF9FEF08950F931F93CF93DF93FC019F
:10336000818D928D0097B9F0EF010E948A198C012E
:103370000F3F8FEF180791F0898D9A8DFC014285E0
:1033800053856485758541505109610971090E9411
:10339000171DC80105C080E090E002C08FEF9FEFCD
:1033A000DF91CF911F910F910895EF92FF920F93AC
:1033B0001F93CF93DF93EC017B018A011B821A825A
:1033C00088EE93E0A0E0B0E08C839D83AE83BF8362
:1033D0008DED94E0998388838DE190E00E94F90F50
:1033E0009A8F898F009779F02DE1F701DC01019028
:1033F0000D922A95E1F74CE050E0B801CE010C9611
:103400000E941B38188EDF91CF911F910F91FF9072
:10341000EF900895FC011382128288EE93E0A0E001
:10342000B0E084839583A683B7838DED94E0918388
:103430008083128E118E148608950895FC01818D6B
:10344000928D009711F00C94C91B80E090E00895D4
:10345000FC01818D928D009711F00C94171D80E076
:103460000895DC015996ED91FC915A97309729F017
:10347000628573858485958508956FEF7FEFCB0115
:103480000895DC015996ED91FC915A97309729F0F7
:103490006389748985899689089560E070E0CB011D
:1034A0000895CF92DF92EF92FF92CF93DF93FC01CA
:1034B000218D328D232BD9F0EC010E94411A6B0132
:1034C0007C01CE010E94311AA7019601261B370B01
:1034D000480B590BDA01C901811530E89307A105A2
:1034E000B10538F08FEF9FE7A0E0B0E002C080E0C8
:1034F00090E0DF91CF91FF90EF90DF90CF90089513
:10350000CF93DF93EC01898D9A8D009741F00E9453
:10351000F41D898D9A8D0E948E101A8E198EDF915E
:10352000CF910895DC015996ED91FC915A9730970F
:1035300021F081E09581911101C080E00895CF9341
:10354000DF93EC019C012A5F3F4F41E050E060E0D7
:1035500070E08B8D9C8D0E94E7268823A1F08F89D7
:10356000988DA98DBA8D892B8A2B8B2B59F48E813E
:103570009F81A885B9858F8B988FA98FBA8F8C81F1
:1035800080688C8381E0DF91CF910895CF92DF92A4
:10359000EF92FF921F93CF93DF93EC010E949F1A4B
:1035A000811102C080E04AC0EB8DFC8DCE80DF80AF
:1035B000E884F98482E0C81AD108E108F10805849A
:1035C00004C0CC0CDD1CEE1CFF1C0A94D2F78685CF
:1035D0009785A089B189C80ED91EEA1EFB1E1481E9
:1035E00081E0C81AD108E108F108112361F0C70190
:1035F000B601610F711D811D911D0E943625882322
:1036000089F21150F2CFEB8DFC8D80E092E0A0E0CA
:10361000B0E0058404C0880F991FAA1FBB1F0A943D
:10362000D2F74B895C896D897E89840F951FA61F0F
:10363000B71F8B8B9C8BAD8BBE8B81E0DF91CF91C5
:103640001F91FF90EF90DF90CF900895CF93DF937D
:10365000EC01462F6E857F85888999890E94FB241D
:10366000882341F08A8920E2829FC00111248F5C67
:10367000974E02C080E090E0DF91CF910895FB016A
:103680009B01255F3F4F40E24193E217F307E1F7CB
:10369000DC0190E027E08D91882319F18E3219F03A
:1036A000EAE1F3E008C02A3009F198E02AE0F3CF1C
:1036B00031963817D9F034913111FACF2917B0F07B
:1036C0003FED380F3E3590F431E0390FFB01E90F43
:1036D000F11D9FE9980F9A3108F480528083932F4F
:1036E000DACF81E0FB019081903209F480E0089507
:1036F0000F931F93CF93DF93FC012581222311F0B9
:1037000080E042C08B01EC01FB0187898031B1F47C
:1037100082E08D831F8A188E198E1A8E808D918D6E
:10372000A0E0B0E025E0880F991FAA1FBB1F2A95D3
:10373000D1F78B8B9C8BAD8BBE8B15C0803201F784
:1037400083E08D83FB01428D538D648D758D4F8B8E
:10375000588F698F7A8F9E012D5E3F4FC8010E945E
:10376000DE25882369F21C8F0B8F81E08C831E82FB
:103770001F82188619861A861B861C861D861E8641
:103780001F86188A198A1A8ADF91CF911F910F918B
:1037900008952F923F924F925F926F927F928F92F5
:1037A0009F92AF92BF92CF92DF92EF92FF920F93D0
:1037B0001F93CF93DF93EC015B014A018D8181114F
:1037C00003C08FEF9FEFD7C08C8180FFFACF4B886B
:1037D0005C886D887E884A855B856C857D85C401A3
:1037E000A0E0B0E093018201041B150B260B370B00
:1037F000081719072A073B0718F44201841A950A8B
:1038000024011E0126E0220E311C4114510409F44A
:103810007EC04A855B856C857D856A0181E0D82202
:10382000ED818A019B0189E03695279517950795CB
:103830008A95D1F78B8D9C8DE23061F4FC01828DED
:10384000938DA48DB58DBC01CD01600F711F821FBA
:10385000931F3FC0FC0174807A947022C114D1047C
:10386000C9F4711017C0452B462B472B49F48F899B
:10387000988DA98DBA8D8E839F83A887B9870AC03A
:103880004E815F816885798591010E945A25882340
:1038900009F497CFEB8DFC8D8E819F81A885B9852A
:1038A0000297A109B109058404C0880F991FAA1FB6
:1038B000BB1F0A94D2F74685578560897189840FAA
:1038C000951FA61FB71FBC01CD01670D711D811D7E
:1038D000911D20E032E02C193D09320124153505F7
:1038E00008F439012C8126FD04C06114F2E07F0642
:1038F00079F5009107021091080220910902309198
:103900000A02601771078207930719F421C0C401E6
:1039100032C0750183019601AB01BC0180912F1863
:10392000909130180E941E24882309F44ACFA60CD7
:10393000B71C8A859B85AC85BD85860D971DA11D0D
:10394000B11D8A879B87AC87BD87461857085DCF16
:1039500040E00E94FB24882309F433CFF601EF5C9A
:10396000F74ED501CF01860D971DE817F907F9F23B
:1039700021912D93FACFDF91CF911F910F91FF905D
:10398000EF90DF90CF90BF90AF909F908F907F90FF
:103990006F905F904F903F902F900895FF920F93FC
:1039A0001F93CF93DF931F92CDB7DEB7FC01258124
:1039B000223018F480E090E033C08C01FC01428595
:1039C00053856485758585E0769567955795479508
:1039D0008A95D1F7F42FFF70FF2E41E050E0BE0131
:1039E0006F5F7F4FC8010E94C91B019719F489813D
:1039F00090E002C08FEF9FEF0196E1F2F80182851F
:103A00009385A485B5854F96A11DB11D82879387A7
:103A1000A487B587F0E2FF9EC00111248F5C974E0A
:103A20000F90DF91CF911F910F91FF9008958F928A
:103A30009F92AF92BF92CF92DF92EF92FF920F933D
:103A40001F93CF93DF93EC018D81811102C080E041
:103A500077C00B891C892D893E8904171507260715
:103A60003707A8F36A017B01823029F4CA86DB8616
:103A7000EC86FD860DC0C114D104E104F10451F4BB
:103A80001E821F82188619861A861B861C861D8632
:103A900081E056C08A849B84AC84BD84EB8DFC8D10
:103AA000258530E0275F3F4FB501A4014150510902
:103AB00061097109022E04C076956795579547955F
:103AC0000A94D2F7D701C6010197A109B10904C030
:103AD000B695A795979587952A95D2F78417950758
:103AE000A607B70720F089288A288B2849F44F8930
:103AF000588D698D7A8D4E835F836887798704C07E
:103B0000841B950BA60BB70B4C015D018E010A5F60
:103B10001F4F81149104A104B10409F4A7CF4E8171
:103B20005F816885798598018B8D9C8D0E945A25CF
:103B300091E0891A9108A108B1088111EACF87CFD5
:103B4000DF91CF911F910F91FF90EF90DF90CF9079
:103B5000BF90AF909F908F9008950F931F93CF9336
:103B6000DF93EC018D818823C9F18C8187FF30C000
:103B700061E0CE010E94261B8C01892B79F18D8199
:103B8000823048F48B899C89AD89BE89F801848F85
:103B9000958FA68FB78F8F89988DA98DBA8DF801D3
:103BA000938F828FB58BA48BE0912818F091291800
:103BB000309759F0B8016A5E7F4FC8014896199551
:103BC000F801808D918D938B828B8C818F778C8384
:103BD000DF91CF911F910F910C94C02480E0DF9171
:103BE000CF911F910F910895CF93DF93EC010E9425
:103BF000AD1D882311F01D8281E0DF91CF910895E2
:103C00004F925F926F927F928F929F92AF92BF92EC
:103C1000EF92FF920F931F93CF93DF9300D01F92E9
:103C2000CDB7DEB7FC0185818130E9F4848181FF65
:103C30001AC083899489A589B68984179507A60730
:103C4000B70788F0892B8A2B8B2B09F479C04A019E
:103C50005B017F014284538464847584CF010E9498
:103C6000171D811102C080E06CC0F701838D948D17
:103C700081149104A104B10471F44789508D618DC0
:103C8000728D0E94FC27882371F3F701178A108E2A
:103C9000118E128E3AC0F701468157816085718579
:103CA0009E012F5F3F4F0E945A258823E1F24981F0
:103CB0005A816B817C81F701838D948DFC0127896A
:103CC000203129F008EF1FEF2FEF3FE004C008EF8D
:103CD0001FEF20E030E04017510762077307A8F498
:103CE0000E94FC27882309F4BECFF7014681578143
:103CF000608571850FEF1FEF2FEF3FE0838D948D6F
:103D00000E944726882309F4AECFF701838A948A5C
:103D1000A58AB68A848180688483C7010E94AD1D0C
:103D2000882309F4A0CFB501A401481459046A04FA
:103D30007B0410F4B301A201C7010E94171D01C04A
:103D400081E00F900F900F900F90DF91CF911F9116
:103D50000F91FF90EF90BF90AF909F908F907F90CA
:103D60006F905F904F9008951F93CF93DF93EC0176
:103D700080E2689FF00111249F012F5C374ED9012A
:103D80001B969C91917129F0842F827411F080E030
:103D90005BC0142F6A8B8091070290910802A0915A
:103DA0000902B0910A028E879F87A88BB98BEF5CBE
:103DB000F74E4489558960E070E0BA0155274427E1
:103DC0004F8B588F698F7A8F828D938DA0E0B0E0F2
:103DD000482B592B6A2B7B2B4F8B588F698F7A8FEF
:103DE000D9011B968C91887151F4848D958DA68D87
:103DF000B78D8B8B9C8BAD8BBE8B81E00DC08031E2
:103E000031F69E012D5E3F4F8B8D9C8D0E94DE25ED
:103E1000882309F4BCCF84E08D83812F8F708C833D
:103E20001E821F82188619861A861B861C861D868E
:103E300016FF09C040E050E0BA01CE01DF91CF91FA
:103E40001F910C94001E81E0DF91CF911F91089586
:103E5000CF92DF92EF92FF920F931F93CF93DF9356
:103E6000CDB7DEB72C970FB6F894DEBF0FBECDBF2F
:103E7000FC0135813111C2C0D22E8B017C01BE0103
:103E80006F5F7F4FCA010E943F1B882309F4B6C0B1
:103E9000F801838D948DF701948F838FF80116823A
:103EA000178210861186128613861486158630E0D6
:103EB000F80182859385A485B585438954896589F0
:103EC000768984179507A607B70708F041C025E053
:103ED000B695A795979587952A95D1F7F82FFF70F6
:103EE000CF2EC8013C870E94CE1C3C85009709F468
:103EF00085C0FC012081222309F484C0253E99F06D
:103F00004BE050E0BC01CE0101963C870E94F337A4
:103F10003C85892B69F68D2D8073803309F46EC042
:103F20004D2D6C2D67C031116BC0F701C28A4091D5
:103F30000702509108026091090270910A024687B7
:103F40005787608B718BFC01808131E08111B0CF8C
:103F50008D2D8271823109F051C0332341F061E02F
:103F6000C7010E94261B8C01892B79F447C0F801F8
:103F70008581823009F442C0C8010E94C61A882394
:103F8000E9F1F701128A01E318E180E2F8011192E8
:103F90008A95E9F78BE0FE013196D80101900D92E8
:103FA0008A95E1F7E0912818F0912918309739F0B7
:103FB000B801625F7F4FC8014096199509C081E240
:103FC00098E2F801918B808B80E098E09787868754
:103FD000F80180899189938B828B918F808F868560
:103FE0009785978B868B0E94C024882339F04D2DAE
:103FF000F7016289C7010E94B41E09C080E007C0B2
:1040000031E056CF332309F490CF31E0A1CF2C9685
:104010000FB6F894DEBF0FBECDBFDF91CF911F91D9
:104020000F91FF90EF90DF90CF9008952F923F92E5
:104030004F925F926F927F928F929F92AF92BF92B8
:10404000CF92DF92EF92FF920F931F93CF93DF9364
:1040500000D01F92CDB7DEB78C016B013A01DC01B5
:1040600015968C9115978130C9F414968C9181FF27
:1040700015C082FF1DC0F80143895489658976897E
:1040800082859385A485B58584179507A607B7070C
:1040900079F0C8010E94171D81110AC081E090E0EB
:1040A000D80113969C938E93129780E090E048C1BC
:1040B000430184C0D8015B968D919C915C97FC0173
:1040C00054802FEF250D1A012B0139E056944794A7
:1040D000379427943A95D1F7522E52207A01F1E085
:1040E000FF22552009F476C080E092E08E199F09E6
:1040F00054018815990508F45C01D8015B962D914F
:104100003C915C9716968D919D910D90BC91A02D40
:104110000297A109B109F901058404C0880F991F0C
:10412000AA1FBB1F0A94D2F74685578560897189FB
:10413000840F951FA61FB71F9C01AD01250D311DD2
:10414000411D511D19012A01A11432E0B30609F0E5
:1041500088C08091070290910802A0910902B09155
:104160000A0282159305A405B50559F48FEF9FEF58
:10417000DC018093070290930802A0930902B09398
:104180000A029601B201A10180912F189091301876
:104190000E947224882309F481CF9EEFD91A8A18CD
:1041A0009B08F80182859385A485B5858A0D9B1DA2
:1041B000A11DB11D82879387A487B587D8011A9660
:1041C0004D915D916D917C911D978114910409F041
:1041D00071CF87C0E114F10409F086CF16964D9196
:1041E0005D916D917C91199741155105610571059E
:1041F00059F457968D919D910D90BC91A02D0097EB
:10420000A105B10541F521C09E012F5F3F4F0E94DE
:104210005A25882309F44ACF89819A81AB81BC81D0
:10422000F801238D348DF9012789203129F048EFD9
:104230005FEF6FEF7FE004C048EF5FEF60E070E09A
:1042400084179507A607B70730F0C8010E949F1A88
:1042500081114ACF23CFF80186839783A087B18746
:1042600043CFE114F10429F5D8011A964D915D91DF
:104270006D917C911D9753968D919D910D90BC9160
:10428000A02D481759076A077B0798F00E94C024A1
:10429000882309F403CF209207023092080240924B
:1042A000090250920A0280912E18816080932E1884
:1042B00008C041E0C201B1010E94FB24882309F437
:1042C000EDCED601F701EF5CF74ECF018A0D9B1DB5
:1042D000E817F90719F02D912193FACFCA0CDB1CCE
:1042E0005ECF5396CD90DD90ED90FC90569714964E
:1042F0008C91C416D506E606F70640F4F801438B08
:10430000548B658B768B806884830DC02091281830
:1043100030912918232B39F06114710421F0806841
:10432000D80114968C93F801848183FD02C0C301E7
:1043300007C0C8010E94AD1D882309F4AFCEF7CF96
:104340000F900F900F900F90DF91CF911F910F91D1
:10435000FF90EF90DF90CF90BF90AF909F908F90A5
:104360007F906F905F904F903F902F900895CF93E4
:10437000DF931F92CDB7DEB7698341E050E0BE0105
:104380006F5F7F4F0E9416200F90DF91CF910895AD
:104390008EBD0DB407FEFDCF08958FEF0E94C8219A
:1043A0008EB5089561E0FC0184810C94A00F60E05B
:1043B000FC0184810C94A00FCF93DF93FC018681D4
:1043C0008823D1F08FEF8EBD4FEF878190859C01C0
:1043D0002F5F3F4F308727838130924028F40DB400
:1043E00007FEFDCF4EBDF1CF0DB407FEFDCFEF01AF
:1043F000CF010E94D2211E82DF91CF9108956730B4
:1044000028F026E1FC01258380E008958DB560FD4C
:1044100002C0663011F48E7F01C081608DBD8CB505
:104420008C7F8CBD9CB562FD02C080E001C082E043
:1044300066956170692B862B8CBD81E008950F9382
:104440001F93CF93DF93EB010E94340E8B010E94E8
:10445000CD218F3F49F00E94340E601B710B6C1709
:104460007D07A8F380E001C081E0DF91CF911F912B
:104470000F910895CF92DF92FF920F931F93CF93E6
:10448000DF9300D01F92CDB7DEB76C01F62E2983E3
:104490003A834B835C830E94DC21C6010E94D721B2
:1044A0006CE271E0C6010E941F228F2D80640E9481
:1044B000C82108E110E05C814B813A812981DA0151
:1044C000C901002E04C0B695A795979587950A94C3
:1044D000D2F729833A834B835C830E94C82108501A
:1044E000110929813A814B815C81083F8FEF1807C0
:1044F00031F7FF2029F0E8E0FE1204C087E803C08E
:1045000085E901C08FEF0E94C82110E00E94CD21F3
:10451000F601828787FF04C01F3F11F01F5FF6CFAF
:104520000F900F900F900F90DF91CF911F910F91EF
:10453000FF90DF90CF9008958F929F92AF92BF929D
:10454000EF92FF920F931F93CF93DF93EC01E62E30
:104550001B8619861E821D824C830E94340E8B019D
:1045600061E08C810E94640FCE010E94D22160E044
:1045700082E30E94640F61E083E30E94640F61E0C4
:1045800084E30E94640F61E085E30E94640F61E0B0
:1045900085E30E94A00F83E58CBD8DB58E7F8DBD18
:1045A0002AE0F22E8FEF0E94C821FA94F110FACF80
:1045B000CE010E94D72120E030E0A90160E0CE01C9
:1045C0000E943A22F82E8A8781E0F81649F00E946C
:1045D000340E601B710B613D774068F381E04CC085
:1045E0002AEA31E040E050E068E0CE010E943A2241
:1045F00082FF02C0FB860EC094E0F92E0E94CD21FE
:104600008A87FA94F110FACF8A3A11F082E034C026
:1046100082E08B878B85823021F0812C912C540194
:1046200005C0812C912CA12C80E4B82E20E030E034
:10463000A90167E3CE010E943A22A501940169E233
:10464000CE010E943A228A87882349F00E94340EC4
:10465000601B710B613D774048F388E00DC08B858E
:10466000823039F520E030E0A9016AE3CE010E94F2
:104670003A22882389F086E08D83CE010E94D221E0
:1046800080E0DF91CF911F910F91FF90EF90BF904D
:10469000AF909F908F9008950E94CD21807C803CA8
:1046A00011F483E08B870E94CD210E94CD210E94CE
:1046B000CD21CE010E94D2216E2DCE01DF91CF916E
:1046C0001F910F91FF90EF90BF90AF909F908F90B0
:1046D0000C94FF210F931F93CF93DF93EC010E9463
:1046E000340E8B010E94CD218A878F3F49F40E94AE
:1046F000340E601B710B6D327140A0F38FE003C06C
:104700008E3F39F08DE08D83CE010E94D22180E072
:1047100001C081E0DF91CF911F910F910895CF9259
:10472000DF92EF92FF920F931F93CF93DF93EC01F1
:104730006901C801820F931F8130924008F06FC059
:104740008E81882371F088819981AA81BB81481765
:1047500059076A077B0729F48F819885C816D906FF
:1047600018F5488359836A837B838B85833039F0BE
:1047700089E0440F551F661F771F8A95D1F79A016C
:10478000AB0161E1CE010E943A22882319F083E057
:104790008D8345C0CE010E946A23882309F43FC05F
:1047A00018861F8281E08E838FEF8EBD2FEF8F8161
:1047B00098858C159D0550F40DB407FEFDCF2EBDD8
:1047C0008F819885019698878F83F1CFC8010197D3
:1047D000F7014FEF9F012E193F092817390738F4C9
:1047E0000DB407FEFDCF2EB521934EBDF3CF0DB412
:1047F00007FEFDCF2EB5F701E80FF91F20838F814B
:104800009885080F191F18870F838985882319F049
:104810000115124048F0CE010E94DC2105C0CE01F6
:104820000E94D22180E001C081E0DF91CF911F91F1
:104830000F91FF90EF90DF90CF900895EF92FF924D
:104840000F931F930115110519F00E948F2301C0CA
:1048500081E01F910F91FF90EF900895EF92FF92EA
:104860000F931F93790100E012E020E030E00E94F6
:104870008F231F910F91FF90EF900895CF93DF93B7
:10488000EC016EBD20E030E00DB407FEFDCFFA0173
:10489000E20FF31F80818EBD0DB407FEFDCF818135
:1048A0008EBD2E5F3F4F211582E0380769F70DB4AA
:1048B00007FEFDCF8FEF0E94C8218FEF0E94C82115
:1048C0000E94CD218A87982F9F71953039F081E120
:1048D0008D83CE010E94D22180E001C081E0DF9172
:1048E000CF9108950F931F93CF93DF93EC0189012C
:1048F000411551056105710511F482E132C08B85C6
:10490000833039F089E0440F551F661F771F8A9561
:10491000D1F79A01AB0168E1CE010E943A228823C7
:1049200011F084E01EC0A8016EEFCE010E943E246B
:104930008823C1F068E572E0CE010E941F22811138
:1049400002C085E10EC020E030E0A9016DE0CE019B
:104950000E943A22811104C00E94CD21882339F09F
:1049600084E18D83CE010E94D22180E004C0CE017B
:104970000E94D22181E0DF91CF911F910F91089584
:1049800080912E188823A9F14091070250910802C6
:104990006091090270910A0221E338E180912F1899
:1049A000909130180E947224811102C080E0089515
:1049B00040912A1850912B1860912C1870912D1845
:1049C000411551056105710591F021E338E18091B0
:1049D0002F18909130180E947224882339F3109276
:1049E0002A1810922B1810922C1810922D18109231
:1049F0002E1881E00895CF92DF92EF92FF92CF932D
:104A00006B017C01C42F8091070290910802A09154
:104A10000902B0910A028C159D05AE05BF05D1F0C3
:104A20000E94C024811102C080E01AC021E338E155
:104A3000B701A60180912F18909130180E942E2462
:104A4000882391F3C0920702D0920802E0920902F3
:104A5000F0920A0280912E18C82BC0932E1881E084
:104A6000CF91FF90EF90DF90CF900895CF92DF929B
:104A7000EF92FF926B017C010E94C0248823A9F071
:104A8000E1E3F8E111928AE1E133F807D9F7C09246
:104A90000702D0920802E0920902F0920A02809185
:104AA0002E18816080932E1881E0FF90EF90DF90A8
:104AB000CF9008958F929F92AF92BF92CF92DF9244
:104AC000EF92FF920F931F93CF93DF93FC018185A9
:104AD0009285A385B4850196A11DB11D8417950704
:104AE000A607B70710F480E05CC083899489A58984
:104AF000B689C789C03129F4852E962EA72EBB24EE
:104B000009C04A015B01C7E0B694A79497948794C3
:104B1000CA95D1F7E9016A017B018F01BC01CD0182
:104B2000680D791D8A1D9B1D8090070290900802D8
:104B3000A0900902B0900A02681579058A059B05C4
:104B400099F4F80187898031A9F4B701A6015527A6
:104B500066277727440F551FFA01EF5CF74E8081D7
:104B60009181A0E0B0E018C040E00E94FB248111D8
:104B7000E8CFB9CFB701A6014F775527662777272A
:104B8000440F551F440F551FFA01EF5CF74E80810B
:104B90009181A281B381BF7088839983AA83BB83EB
:104BA00081E0DF91CF911F910F91FF90EF90DF9007
:104BB000CF90BF90AF909F908F9008954F925F924B
:104BC0006F927F92AF92BF92CF92DF92EF92FF925D
:104BD0000F931F93CF93DF9300D01F92CDB7DEB713
:104BE0008C0149835A836B837C835901C12CD12C5E
:104BF0007601412C82E0582E612C712C49815A811A
:104C00006B817C819E012F5F3F4FC8010E945A2516
:104C1000882351F1D301C201F801058404C0880F33
:104C2000991FAA1FBB1F0A94D2F7C80ED91EEA1EED
:104C3000FB1E49815A816B817C818789803129F0F3
:104C400088EF9FEFAFEFBFE004C088EF9FEFA0E0D9
:104C5000B0E0481759076A077B0780F2F501C08268
:104C6000D182E282F38281E00F900F900F900F903B
:104C7000DF91CF911F910F91FF90EF90DF90CF9038
:104C8000BF90AF907F906F905F904F9008954F923C
:104C90005F926F927F928F929F92AF92BF92CF92CC
:104CA000DF92EF92FF920F931F93CF93DF93EC016C
:104CB0006A017B0128013901423051056105710506
:104CC00010F480E073C089859A85AB85BC85019618
:104CD000A11DB11D84179507A607B70790F38B8810
:104CE0009C88AD88BE888F89803129F4BB27AF2D81
:104CF0009E2D8D2D09C0DB01CA0147E0B695A79511
:104D0000979587954A95D1F7880E991EAA1EBB1EC6
:104D10008091070290910802A0910902B0910A02C5
:104D200088169906AA06BB0679F48F898031A1F40A
:104D3000DD24EE24FF24C601880F991FFC01EF5CDF
:104D4000F74E5182408219C040E0C501B4010E9473
:104D5000FB248111EACFB5CFE894C7F8DD24EE2417
:104D6000FF24C601880F991F880F991FFC01EF5C73
:104D7000F74E408251826282738280912E18816048
:104D800080932E188A89823080F08D819E81AF8138
:104D9000B885880E991EAA1EBB1E80922A18909272
:104DA0002B18A0922C18B0922D1881E0DF91CF9192
:104DB0001F910F91FF90EF90DF90CF90BF90AF9039
:104DC0009F908F907F906F905F904F9008952F925B
:104DD0003F924F925F926F927F929F92AF92BF925B
:104DE000CF92DF92EF92FF920F931F93CF93DF93B7
:104DF000CDB7DEB760970FB6F894DEBF0FBECDBF5C
:104E00005C0149875A876B877C871901D901CD904E
:104E1000DD90ED90FC90C114D104E104F10431F077
:104E2000BFEFCB1ADB0AEB0AFB0A10C0FC01C08003
:104E3000D180E280F3809924939409851A852B858B
:104E40003C85013011052105310509F0912CF50152
:104E500081859285A385B4858C019D010F5F1F4FCD
:104E60002F4F3F4F0D871E872F87388B2601370125
:104E70001D821E821F821886F50181859285A38579
:104E8000B4850D811E812F813885081719072A07DF
:104E90003B0708F056C02D853E854F85588924155F
:104EA00035054605570550F482E0482E512C612CFB
:104EB000712C92E0C92ED12CE12CF12C9E012F5F98
:104EC0003F4FB301A201C5010E945A258823C9F1B1
:104ED00049815A816B817C81D301C2010196A11D58
:104EE000B11D452B462B472B19F06C017D010FC0DE
:104EF000AC01BD014C195D096E097F0909851A8550
:104F00002B853C85401751076207730779F02D8187
:104F10003E814F8158852F5F3F4F4F4F5F4F2D830D
:104F20003E834F8358872C013D01A6CF0FEF1FEF23
:104F30002FEF3FE0B301A201C5010E944726811176
:104F400018C080E041C0D301C2010197A109B10995
:104F50008D839E83AF83B88793018201AC01BD012D
:104F6000C5010E944726882361F34D805E806F80D3
:104F70007884C414D504E604F70428F3D1014D91D4
:104F80005D916D917C91411551056105710599F413
:104F9000F101C082D182E282F3829920A1F0FFEF79
:104FA000CF1ADF0AEF0AFF0AD501CD92DD92ED920A
:104FB000FC92139708C097018601C5010E944726FD
:104FC0008111E6CFBECF81E060960FB6F894DEBFC8
:104FD0000FBECDBFDF91CF911F910F91FF90EF904A
:104FE000DF90CF90BF90AF909F907F906F905F9039
:104FF0004F903F902F900895AF92BF92CF92DF9243
:10500000EF92FF920F931F93CF93DF9300D01F92E5
:10501000CDB7DEB75C016A017B0182E090E0A0E0E1
:10502000B0E0F50180839183A283B3839E012F5F5B
:105030003F4FB701A601C5010E945A25882311F1EF
:1050400000E010E09801B701A601C5010E944726C3
:105050008823C1F0C980DA80EB80FC80F501878964
:10506000803129F088EF9FEFAFEFBFE004C088EFF9
:105070009FEFA0E0B0E0C816D906EA06FB06B0F242
:1050800081E001C080E00F900F900F900F90DF91B2
:10509000CF911F910F91FF90EF90DF90CF90BF9035
:1050A000AF9008958F929F92AF92BF92CF92DF926E
:1050B000EF92FF920F931F93CF93DF93EC01142F86
:1050C0007093301860932F18442369F1453010F025
:1050D00080E0F2C040E060E070E0CB010E94FB2481
:1050E0008823B1F320E1129FA00111244F5D574E98
:1050F000FA01E254FE4F80818F7751F73C96808110
:105100009181A281B38184369105A105B10500F397
:105110003497C080D180E280F380C114D104E104CF
:10512000F10421F4D5CFC12CD12C760140E0C70188
:10513000B6010E94FB24882359F280913C1890917B
:105140003D188115924021F690914118992309F458
:10515000BFCF20913F1830914018232B09F4B8CFCE
:1051600080913E18882309F4B3CF9A8B8C831D86D7
:1051700090E061E070E02D85E22FAB01022E02C0CD
:10518000440F551F0A94E2F78417950731F031E078
:10519000320F3D87283078F39BCF2091471830910C
:1051A00048182115310519F040E050E008C0209161
:1051B00055183091561840915718509158182D8312
:1051C0003E834F83588780913F1890914018460145
:1051D0005701880E991EA11CB11C8B8A9C8AAD8A2E
:1051E000BE8A0091421810914318198F088FA09120
:1051F0004118B0E00E940239860E971EA81EB91E03
:105200008A8E9B8EAC8EBD8E85E0000F111F8A9515
:10521000E1F701501E4F012F11270695800E911EB8
:10522000A11CB11C8E869F86A88AB98A2091441839
:10523000309145182115310521F0A90160E070E099
:1052400008C04091511850915218609153187091B4
:105250005418D701C60188199909AA09BB09840FF6
:10526000951FA61FB71F04C0B695A795979587955C
:10527000EA95D2F789879A87AB87BC87853F2FE06D
:105280009207A105B10510F48CE014C0853F9F4F33
:10529000A105B10510F480E10DC080915D189091D9
:1052A0005E18A0915F18B09160188A8F9B8FAC8FA9
:1052B000BD8F80E28F8B81E0DF91CF911F910F91A5
:1052C000FF90EF90DF90CF90BF90AF909F908F9026
:1052D00008952F923F924F925F926F927F928F929A
:1052E0009F92AF92BF92CF92DF92EF92FF920F9375
:1052F0001F93CF93DF9300D0CDB7DEB74C017B83F4
:105300006A836A01590117019801241B350B37FF85
:1053100003C0319521953109C5014A815B81841B08
:10532000950B97FF03C091958195910951E05983A1
:105330008217930714F019820BC09A2D8B2D5801F8
:10534000092F182F9A818B81DB82CA82C92ED82E11
:105350008A819B81A816B9065CF49C2D8D2D68016D
:10536000092F182F9A818B81BB82AA82A92EB82E71
:105370002501AA81BB814A1A5B0A38016C187D0895
:1053800077FE03C0719461947108720157FE03C0E7
:10539000BFEFEB1AFB0AF594E794C016D1061CF098
:1053A0000FEF1FEF1FC001E010E01CC0D401ED9112
:1053B000FC91B9810084F185E02D9101BB23C1F0FE
:1053C0004A815B81B601C4011995E618F708F7FE1A
:1053D00004C0C00ED11EE40CF51CEA81FB8131969D
:1053E000FB83EA834A815B81A416B506FCF604C000
:1053F000A6016A817B81E7CF0F900F900F90DF911C
:10540000CF911F910F91FF90EF90DF90CF90BF90C1
:10541000AF909F908F907F906F905F904F903F9054
:105420002F9008950895DC01ED91FC910480F581A1
:10543000E02D19940F931F93DC01ED91FC91008CEA
:10544000F18DE02D19951F910F9108950F931F93E2
:10545000DC01ED91FC91028CF38DE02D19951F91EB
:105460000F910895EF92FF920F931F93DC01ED913E
:10547000FC91048CF58DE02D19951F910F91FF90F3
:10548000EF9008950895AF92BF92CF92DF92EF927E
:10549000FF920F931F93CF93DF9300D01F92CDB74E
:1054A000DEB75C016901DC01ED91FC910680F781BA
:1054B000E02D4B835C8369837A831995D501ED9147
:1054C000FC914B815C81C40ED51EB1E0CB1AD10892
:1054D0000088F189E02D7801860169817A819B013C
:1054E000C5011995D501ED91FC910288F389E02D54
:1054F000C5010F900F900F900F90DF91CF911F91EA
:105500000F91FF90EF90DF90CF90BF90AF901994E4
:10551000AF92BF92CF92DF92EF92FF920F931F93C1
:10552000CF93DF9300D01F92CDB7DEB75C01690146
:10553000DC01ED91FC910680F781E02D4B835C83CB
:1055400069837A831995D501ED91FC9169817A81FE
:105550009B012C0D3D1D215031090088F189E02D62
:1055600078014B815C818A01C5011995D501ED91C6
:10557000FC910288F389E02DC5010F900F900F90E8
:105580000F90DF91CF911F910F91FF90EF90DF90DF
:10559000CF90BF90AF9019944F925F926F927F928D
:1055A0008F929F92AF92BF92CF92DF92EF92FF9233
:1055B0000F931F93CF93DF931F921F92CDB7DEB748
:1055C0006C015A0139014801DC01ED91FC91068022
:1055D000F781E02D69837A8319956981462E7A8156
:1055E000572E640C751CD601ED91FC91461457049E
:1055F0006CF40484F585E02D87019401A501B201C6
:10560000C6011995BFEF4B1A5B0AEDCF0288F389EB
:10561000E02DC6010F900F90DF91CF911F910F9158
:10562000FF90EF90DF90CF90BF90AF909F908F90C2
:105630007F906F905F904F901994EF92FF920F932D
:105640001F93DC01ED91FC9111971A960D911C911D
:105650001B9718962D913C911997048CF58DE02D90
:105660007B0140E050E060E070E019951F910F91E0
:10567000FF90EF900895CF92DF92EF92FF920F93F9
:105680001F93CF93DF9300D000D0CDB7DEB76C016E
:10569000DC01ED91FC916217730789F4041715077B
:1056A0002CF4942F852FA801092F182F041B150BFC
:1056B00098012F5F3F4F008CF18DE02D12C04017F5
:1056C000510709F5261737072CF4962F872FB901B4
:1056D000292F382F261B370B2F5F3F4F028CF38D5E
:1056E000E02D8701C601199526960FB6F894DEBF06
:1056F0000FBECDBFDF91CF911F910F91FF90EF9023
:10570000DF90CF9008950680F781E02D2D833E83B2
:105710004B835C8369837A831995D601ED91FC9163
:105720000088F189E02D2D813E814B815C8169816A
:105730007A81C6011995D601ED91FC910288F38911
:10574000E02DC60126960FB6F894DEBF0FBECDBF82
:10575000DF91CF911F910F91FF90EF90DF90CF904D
:1057600019946F927F928F929F92AF92BF92CF9235
:10577000DF92EF92FF920F931F93CF93DF93EC0191
:105780004B015A0169013801E881F9810680F781EE
:10579000E02D1995E881F9810684F785E02D8701D0
:1057A0009601A501B401CE011995E881F981A50101
:1057B000460D571D415051090684F785E02D96018D
:1057C000B401CE011995E881F9810484F585E02DB5
:1057D0009301A501B401CE011995E881F981C80CA6
:1057E000D91CB601615071090484F585E02D93013F
:1057F000A501CE011995E881F9810288F389E02D90
:10580000CE01DF91CF911F910F91FF90EF90DF902C
:10581000CF90BF90AF909F908F907F906F90199492
:105820000895FC016370658B8481958126813781A1
:10583000613039F0633029F0918780873387228780
:10584000089531872087938782870895FC0113820A
:10585000128285EF94E091838083758364835783FC
:1058600046837187608753874287158A1586148619
:105870001786168681E0848B2FEF3FEF338B228BC8
:10588000318B208B868B178A118E108E08952F9264
:105890003F924F925F926F927F928F929F92AF92C0
:1058A000BF92CF92DF92EF92FF920F931F93CF930D
:1058B000DF93CDB7DEB728970FB6F894DEBF0FBEE3
:1058C000CDBF5C013B014A0138872F83FC82EB820C
:1058D00081E090E02C01421A530AC901919581950B
:1058E00091099C01220F331F3A832983170133E06A
:1058F000230E311CEE24E394F12C802F81708D83D4
:1059000002700E83C7010197EF81F8858E179F07FC
:105910000CF078C057FC0CC0AF81B8851197B887E0
:10592000AF83E981FA813296FA83E9834E0E5F1ED6
:10593000C701880F991F0196480E591EFD81FF234C
:1059400059F1D501ED91FC912F813885220F331F3C
:105950002F5F3F4F8B819C81280F391F0484F58571
:10596000E02D8601A401AF81B8854A1B5B0BB7010E
:10597000660D771DC5011995D501ED91FC91048443
:10598000F585E02D9101A4014E195F096F8178859D
:10599000660D771DC5011995BE81BB2361F1D50147
:1059A000ED91FC912F813885220F331F2F5F3F4FE0
:1059B0008B819C81280F391F0484F585E02D860199
:1059C000A401AF81B8854A1B5B0BB3016E197F0937
:1059D000C5011995D501ED91FC910484F585E02D63
:1059E0009101A4014E195F09B3018F819885681B4D
:1059F000790BC50119959FEFE91AF90AA2E02A0E61
:105A0000311C80CF28960FB6F894DEBF0FBECDBFF5
:105A1000DF91CF911F910F91FF90EF90DF90CF908A
:105A2000BF90AF909F908F907F906F905F904F90BE
:105A30003F902F9008956F927F928F929F92AF9296
:105A4000BF92CF92DF92EF92FF920F931F93CF936B
:105A5000DF93EC014B013A0159016801E881F981BA
:105A60000680F781E02D1995E881F9819501220FD3
:105A7000331F2F5F3F4FA3014A195B090484F5854B
:105A8000E02DB401CE011995E12CF12C03E0950134
:105A9000A301B401CE010E94472CE881F98102885C
:105AA000F389E02DCE01DF91CF911F910F91FF90EF
:105AB000EF90DF90CF90BF90AF909F908F907F90AE
:105AC0006F9019942F923F924F925F926F927F92B4
:105AD0008F929F92AF92BF92CF92DF92EF92FF92FE
